:020000040001F9
:10C00000A88300208DC4010095C4010097C40100DD
:10C0100099C401009BC401009DC401000000000000
:10C020000000000000000000000000009FC40100AC
:10C03000A1C4010000000000A3C40100A5C40100C8
:10C04000A7C40100A7C40100FDCE0100A7C40100E0
:10C05000A7C40100A7C4010099CA0100A7C4010038
:10C06000A7C40100A7C40100A7C40100A7C4010020
:10C07000A7C40100A7C40100A7C40100A7C4010010
:10C08000A7C4010045CC0100A7C40100A7C401005A
:10C0900069CC0100A7C401006DCC0100A7C4010058
:10C0A000A7C40100A7C40100A7C40100A7C40100E0
:10C0B000A7C40100A7C401000000000000000000A8
:10C0C000A7C40100A7C40100A7C40100A7C40100C0
:10C0D000A7C40100A7C40100A7C40100000000001C
:10C0E0000000000000000000000000000000000050
:10C0F0000000000000000000000000000000000040
:10C10000000000000000000000000000000000002F
:10C11000000000000000000000000000000000001F
:10C40000DFF80CD000F078FA004800471DE9010081
:10C41000A8830020401E00BF00BF00BF00BF00BFB8
:10C4200000BF00BF00BF00BF00BF00BF00BF00BF14
:10C4300000BF00BF00BF00BF00BF00BF00BF00BF04
:10C4400000BF00BF00BF00BF00BF00BF00BF00BFF4
:10C4500000BF00BF00BF00BF00BF00BF00BF00BFE4
:10C4600000BF00BF00BF00BF00BF00BF00BF00BFD4
:10C4700000BF00BF00BF00BF00BF00BF00BF00BFC4
:10C4800000BF00BF00BFC5D170470000064880470D
:10C4900006480047FEE7FEE7FEE7FEE7FEE7FEE7A9
:10C4A000FEE7FEE7FEE7FEE791CC010001C40100D4
:10C4B00040EA01039B0703D009E008C9121F08C026
:10C4C000042AFAD203E011F8013B00F8013B521EA6
:10C4D000F9D27047D2B201E000F8012B491EFBD21D
:10C4E00070470022F6E710B513460A46044619467F
:10C4F000FFF7F0FF204610BD30B50B460146002087
:10C500002022012409E021FA02F59D4205D303FA15
:10C5100002F5491B04FA02F52844151EA2F1010296
:10C52000F1DC30BD2DE9F05F0546002092469B46C8
:10C5300088460646814640241BE028464146474639
:10C54000224600F0FAF953465A46C01A914110D3D8
:10C5500011461846224600F0E1F92D1A67EB010852
:10C560004F4622460120002100F0D8F917EB0009C0
:10C570004E41201EA4F10104DFDC484631462A4624
:10C580004346BDE8F09F2DE9FE4F804681EA030057
:10C59000C00F0C46009021F0004123F00045B8EB9D
:10C5A0000200A94105D24046214690461C460B4652
:10C5B000024623F00040104347D0270DC7F30A007E
:10C5C000C3F30A510290401A019040286BDAC3F37A
:10C5D000130040F4801B0098924620B10023D2EB58
:10C5E000030A63EB0B0B01985946C0F14002504619
:10C5F00000F094F906460D4650465946019A00F05F
:10C60000ACF910EB08006141002487EA115284EA7A
:10C61000E7731A4340D0009A62B3019A012A4FEAA5
:10C62000075215DC001B61EB02014FF0004202EAE9
:10C630000752CDE90042001C41F5801132462B46DD
:10C6400000F0ACF903B0BDE8F08F40462146F9E7B1
:10C65000001B61EB0201001C41F5801300185B41D7
:10C660002018A2F5001747EB030140EAD570B61970
:10C670006D4111E06D084FEA360645EAC0754FEA94
:10C680000752001B61EB0201001C41F580114908B3
:10C690004FEA30000019514132462B4603B0BDE845
:10C6A000F04F00F06CB90098012240000023D0EB5D
:10C6B000020263EBE073009821464FEAE074B8EBA6
:10C6C000000061EB0401E9E783F000435BE781F0E0
:10C6D000004158E72DE9FE4F81EA030404F00044CD
:10C6E00021F0004100944FF0000B23F0004350EA8A
:10C6F00001045ED052EA03045BD0C3F30A54C1F3D1
:10C700000A552C44A4F2F3340194A0FB0254C1F363
:10C71000130141F48011C3F3130343F4801301FBAD
:10C72000024400FB034E840A970A44EA815447EA14
:10C730008357A4FB076802958D0A05FB07854FEA1E
:10C74000932C04FB0C542705029D4FEA065847EA38
:10C750001637B5EB08056EEB070C870E920E47EA0D
:10C76000811742EA8312A7FB0201B6EB0B0164EBCF
:10C7700000042B0D43EA0C335E1844EB1C50DA46E0
:10C780005146E7FB0201C5F313044FEA0B3343EABA
:10C7900014534FEA0432019C43EA0603A4F10C044B
:10C7A0000294009CCDE900B400F0F8F803B0BDE8B5
:10C7B000F08F00200146F9E72DE9F04D81EA0304EE
:10C7C00004F0004B21F0004514464FF0000A23F01E
:10C7D000004150EA050220D054EA01021DD0C5F301
:10C7E0000A570246C5F31303C1F31300C1F30A56F7
:10C7F00040F4801543F48013A7EB0608101BD646BF
:10C8000008F2FD3873EB050002D308F1010801E0DE
:10C8100092185B41B8F1000F03DA00200146BDE831
:10C82000F08D00204FF48011064684460EE0171B61
:10C8300073EB050705D3121B63EB050306434CEAB4
:10C84000010C49084FEA300092185B4150EA010799
:10C85000EDD152EA030012D082EA040083EA050116
:10C86000084305D0101BAB4106D20122002306E08D
:10C8700000224FF0004302E06FF0010253101AEB68
:10C8800006004CEB085110EB0A0041EB0B01BDE830
:10C89000F04D00F074B8C1F30A52C1F3130140F235
:10C8A000FF3341F480119A4202DA002001467047BA
:10C8B00040F233439A42A2F2334202DC524200F089
:10C8C0003CB800F02BB8000030B5041E71F1000434
:10C8D00004DB4FF00044404264EB0101141E73F18D
:10C8E000000405DB1C464FF00043524263EB040397
:10C8F000994208BF904230BD064C074D06E0E06803
:10C9000040F0010394E8070098471034AC42F6D396
:10C91000FFF77AFDBCFD0100DCFD0100202A04DBED
:10C92000203A00FA02F1002070479140C2F1200342
:10C9300020FA03F3194390407047202A04DB203A81
:10C9400021FA02F00021704721FA02F3D040C2F12F
:10C9500020029140084319467047202A06DBCB1776
:10C96000203A41FA02F043EAE07306E041FA02F3AA
:10C97000D040C2F12002914008431946704710B5DB
:10C98000141E73F1000408DA401C41F100019218F2
:10C990005B411A4301D120F0010010BD2DE9F04D9B
:10C9A00092469B4611B1B1FA81F202E0B0FA80F2F0
:10C9B00020329046FFF7B2FF04460F4640EA0A00D5
:10C9C00041EA0B0153465A46084313D0114653EA35
:10C9D000010019D0C8F140025046FFF7AEFF0546EE
:10C9E0000E46504659464246FFF798FF084305D089
:10C9F000012004E020463946BDE8F08D00200543C3
:10CA000046EAE0762C4337430A986305E40AA0EB34
:10CA100008000022FD0A44EA47540A3002D50020EB
:10CA20000146E9E7010510196941DDE908450019EA
:10CA30006941BDE8F04DA2E770B58D1810F8014BC3
:10CA400014F0030201D110F8012B231106D110F8C4
:10CA5000013B03E010F8016B01F8016B521EF9D1A4
:10CA6000ABB110F8012B04F00C048A1A0C2C03D083
:10CA7000A2EB84129B1C08E010F8014BA2EB0422ED
:10CA8000F8E712F8014B01F8014B5B1EF9D5A942FA
:10CA9000D4D3002070BD00002DE9FC5F0025DFF835
:10CAA0003491A8464FF4807601242F46304602F098
:10CAB000EBFB38B1D9F80403204203D0304602F032
:10CAC000D9FB2543361D64007F1CB6B2082FEDD379
:10CAD0004FF4BE74204602F0D7FB38B1204602F076
:10CAE000C9FB3D4845F00045D0F800803B4E15F0AD
:10CAF000FF0F14D0012700242F420CD009EB840132
:10CB0000D1F81005D1F81015C0F3042056F82420F0
:10CB1000C1F3014190477F00641C082CECD3002D29
:10CB200056DA00200190401E4CE0701910F8501F9A
:10CB300090F9000021F0C004401C38D0012000FA18
:10CB400004FA1AEA090F32D04FEA911B204601F08D
:10CB5000AFFB56F82000009010B9BBF1030F26D1AF
:10CB60005146BBF1030F02D1019808430190A00088
:10CB700000F1A040D0F800071AEA080FC0F3014006
:10CB800002D0022802D012E0032810D1BBF1030F1B
:10CB900007D102281AD00221204602F04DFB7F1C4B
:10CBA000FFB2009818B1009A5946204690476D1C74
:10CBB000042DBAD3002F0BD007480068404507D09A
:10CBC00080460198002781463D46AEE70321E3E712
:10CBD000BDE8FC9F0060004010050050006300208D
:10CBE00000F01F02012191404009800000F1E02087
:10CBF000C0F88012704700F01F02012191404009E7
:10CC0000800000F1E020C0F80011704700F01F0222
:10CC1000012191404009800000F1E020C0F800129D
:10CC200070474907090E002806DA00F00F0000F1EE
:10CC3000E02080F8141D704700F1E02080F8001417
:10CC40007047000007480021C0F84011C0F84411A7
:10CC5000C0F84811C0F84C11C0F80011C0F8041118
:10CC600002F0F8BD0010014002F090BD074810B579
:10CC7000406830B18047002807D0BDE8104000F080
:10CC800047BFBDE8104001F07BBC10BD605F0020D5
:10CC900070B58D480023021D0178101D012406295E
:10CCA00007D115782D0704D10578C5F30315032D99
:10CCB00002D0062904D00FE0854E844D75670EE042
:10CCC00015782D0708D10578C5F30315032D06D077
:10CCD000042D04D0052D02D0062909D010E04FF014
:10CCE0008055D5F844527B4EC5F34235356002E09D
:10CCF00015782D0704D10578C5F30315032D02D04F
:10CD0000062906D011E0744D2E6826F080762E603C
:10CD10000EE015782D0708D10578C5F30315032D0E
:10CD200006D0042D04D0052D02D006290AD011E02A
:10CD30004FF08045C5F80C31C5F81031654D2D1FF9
:10CD40002B6002E015782D0704D10578C5F3031593
:10CD5000032D02D0062905D00CE05E4A032164327F
:10CD600011600AE015782D0704D10578C5F3031585
:10CD7000032D02D006290DD06AE0584A0521116022
:10CD8000564978310C60554908310B603F21121D1E
:10CD9000116002E0117809075AD10078C0F303103E
:10CDA000052855D14E4800684E4908604C48001D82
:10CDB0000068091D08604A4808300068091D0860BD
:10CDC00047480C300068091D08604548103000686D
:10CDD000091D0860424814300068091D0860404879
:10CDE000183000683F49203108603D481C30006819
:10CDF000091D08603A4820300068091D086038485D
:10CE000024300068091D0860354828300068091D75
:10CE1000086033482C300068091D08603048303005
:10CE200000683049403108602D4834300068091DE1
:10CE300008602B4838300068091D086028483C30DD
:10CE40000068091D0860264840300068091D086018
:10CE500021487438016841F470010160BFF34F8FBD
:10CE6000BFF36F8F4FF01021D1F80002002803DBD1
:10CE7000D1F80402002822DA1B4A14601B48046817
:10CE8000002CFCD01524C1F800420568002DFCD010
:10CE9000C1F8044201680029FCD013600168002930
:10CEA000FCD0BFF34F8F0C48F0380168104A01F4F2
:10CEB000E06111430160BFF34F8F00BFFDE70E49F2
:10CEC0000C48086070BD0000E00F00F00DF0ADBA36
:10CED00000C007403C050040FCED00E0105600405B
:10CEE0000404001020C5004004E5014000E40140B6
:10CEF0000400FA050090D003745F00200348007F0F
:10CF000008B102F0E7BD02F061BD000058630020E7
:10CF10000FB4054B10B503A9044A029800F0CAF8F3
:10CF200010BC5DF814FB00001BE501005C5F0020F5
:10CF300002E008C8121F08C1002AFAD170477047E2
:10CF4000002001E001C1121F002AFBD17047000040
:10CF50002DE9FF5FDDE90220010DDDF838B0024365
:10CF600018D044F61050A1F2FF3141430D140F9830
:10CF7000012820D0A5EB0B00401C5FEA000A4FF00F
:10CF80000004474EDFF81C91A046504616D5CAF162
:10CF9000000728E00F98012443A2012808D00021AF
:10CFA00000980F9BC0E90021C0E90243BDE8FF9F44
:10CFB0006FEA0B01F4E7CBF10000DEE7074612E071
:10CFC000F80707D02246334640464946FFF782FB22
:10CFD000804689462246334610461946FFF77AFBBB
:10CFE00004460E467F10002FEAD1DDE90201BAF1B6
:10CFF000000F42464B4602DAFFF76CFB01E0FFF7F9
:10D00000DBFB04460E460022284BFFF75DFC03D8ED
:10D010004FF0FF30014607E00022254B2046314605
:10D02000FFF7B1FAFFF737FC102409E0002C0ADB08
:10D030000A220023FFF776FA019B30321A55641E4C
:10D0400050EA0102F2D1641C019AC4F111031444A4
:10D050000F9A012A03D0012208430DD10AE00843A8
:10D0600004D000204FF0110B0F9080E7A3EB0B05CD
:10D070006D1E0DE05B4504DD4FF0000205F101057A
:10D0800004E003DA4FF00002A5F10105002AECD01C
:10D0900000980F99C0E90231C0E9004586E7000019
:10D0A000000024400000F03F300000000000F0438A
:10D0B0000000E03F2DE9FF4F95B09B4689460646AC
:10D0C00000250FE2252877D100242746F84A0121C0
:10D0D000059400E0044316F8013F203B01FA03F0F9
:10D0E0001042F7D130782A2811D06FF02F03307812
:10D0F000A0F13002092A16D8059A44F0020402EB86
:10D10000820203EB42021044761C0590EFE759F8C7
:10D11000042B0592002A03DA504244F4005405908F
:10D1200044F00204761C30782E2816D116F8010F30
:10D1300044F004042A280DD06FF02F023078A0F1BB
:10D140003003092B09D807EB870302EB4303C71809
:10D15000761CF3E759F8047B761C30786C280FD0E6
:10D1600006DC4C2817D068280DD06A2814D104E0BA
:10D17000742810D07A280FD10DE044F400140AE08E
:10D1800044F4801401E044F440147278824202D1E5
:10D1900004F58014761C761C307866280BD013DCDE
:10D1A000582877D009DC002875D04528F6D04628C5
:10D1B000F4D047281AD19DE118E0632835D06428BF
:10D1C00079D0652812D195E1702873D008DC6728E2
:10D1D000F1D069286FD06E280DD06F2806D1B5E048
:10D1E00073282CD0752875D0782874D05A46179992
:10D1F00090476D1C75E1C4F30250022809D0032842
:10D200000DD0D9F8001004280DD00D6009F10409E3
:10D2100067E1D9F80010EA17C1E90052F6E7D9F83A
:10D2200000100D80F2E70D70F0E719F8041B8DF87F
:10D23000001000208DF80100EA46012003E059F8B3
:10D2400004AB4FF0FF3061074FF0000102D40DE056
:10D2500008F101018846B9420FDA8045F8DB1AF877
:10D2600008100029F4D108E008F101018846814244
:10D27000FADB1AF808100029F6D105985B46A0EBF6
:10D28000080721463846179A00F094FA284400EB24
:10D29000080507E04DE029E10DE01AF8010B5A46B8
:10D2A00017999047B8F10108F7D25B4621463846F6
:10D2B000179A13E142E00A220092C4F302524FF09F
:10D2C000000A022A08D059F804CB032A4FEAEC716D
:10D2D0000AD00DE029E02AE009F1070121F0070258
:10D2E000F2E802C1914609E00FFA8CFC4FEAEC71BA
:10D2F000042A03D14FFA8CFC4FEAEC71002907DABB
:10D300000A460021DCF1000C61EB02012D2202E053
:10D31000220504D52B228DF80420012203E0E20728
:10D3200001D02022F7E7904659E00A2102E01022BE
:10D330000DE010214FF0000A00910BE010224FF099
:10D34000000A44F004040827009203E008224FF08A
:10D35000000A0092C4F30252022A05D059F804CB05
:10D360000021032A08D009E009F1070121F0070292
:10D37000F2E802C1914605E01FFA8CFC042A01D1B3
:10D380000CF0FF0C4FF00008220728D5702806D0BB
:10D39000009B83F0100353EA0A0305D00EE04022FD
:10D3A0008DF80420012208E05CEA010206D0302258
:10D3B0008DF804208DF8050002229046009B83F032
:10D3C000080353EA0A030AD15CEA010201D16207A9
:10D3D00005D530228DF804204FF001087F1E582813
:10D3E00004D034A003900EA802900DE036A0F9E717
:10D3F00053466046009AFFF795F884460398825C8E
:10D400000298401E029002705CEA0100F0D102987E
:10D4100006A9081A00F1200A600702D524F4803416
:10D4200000E00127574502DDA7EB0A0000E00020DD
:10D4300000EB0A01009005984144401A0590E00372
:10D4400006D45B462146179A059800F0B3F90544C7
:10D45000002706E001A85A46C05D179990476D1C49
:10D460007F1C4745F6DBE0030CD55B462146179A47
:10D47000059800F09FF9054404E030205A461799BA
:10D4800090476D1C0099481E00900029F5DC08E0CB
:10D49000029802995A460078491C029117999047C0
:10D4A0006D1CBAF10001AAF1010AF1DC65E100008E
:10D4B000092801003031323334353637383961626A
:10D4C000636465660000000030313233343536372E
:10D4D00038394142434445460000000000F058F905
:10D4E0000544761C307800287FF4ECAD19B028464E
:10D4F000BDE8F08F620700D4062709F1070222F089
:10D50000070CFCE80223E14603F000485FEA080C40
:10D5100002D00FF2702C0DE05FEA045C02D50FF22E
:10D52000682C07E05FEAC47C02D00FF2602C01E0B7
:10D53000AFF2700C4FF0FF3823F00043CDF850C02D
:10D5400065280CD006DC452809D046281DD0472880
:10D550003DD13DE0662818D067287ED138E0002113
:10D56000112F01DB112000E0781CCDE9000106A994
:10D570000EA8FFF7EDFCDDE90F010E9A03910021E3
:10D58000009207F1010A04914DE04FF0004000972E
:10D59000CDE9011006A90EA8FFF7DAFCDDE90F02BC
:10D5A00003920E9B11990022DDF80CA000930492C7
:10D5B00011B9791C00EB010AB7EB0A0004D4C0F1E1
:10D5C000FF3007F1010A0490AAEB0700019044E044
:10D5D000012F00DA01270021112F01DD112000E0C9
:10D5E0003846CDE9000106A90EA8FFF7B1FCDDE938
:10D5F0000F010E9A0391002104910092BA4621076F
:10D600000CD40399514500DA8A46BAF1010F05DDC1
:10D61000009AAAF10101515C302908D0B84202DA1F
:10D6200010F1040F06DA0121CDE9011015E0AAF18D
:10D630000101E9E7002805DC049901440491AAEB03
:10D64000000102E0411C514500DD8A460499401A60
:10D65000401C01904FF000400290200704D4019834
:10D66000504501DBCDF8048000208DF84F00029872
:10D670000DF14F07B0F1004F25D02B200E900298EE
:10D680004FF0020800280CDA404202902D200E9044
:10D6900007E00A210298FEF72FFF3031029007F8C9
:10D6A000011DB8F10001A8F10108F2DC0298002880
:10D6B000EFD1791E0E980870307800F0200040F00D
:10D6C000450007F8020D12A8C01B00F107081498C6
:10D6D000007800B1012000EB0A01019801EBE07134
:10D6E00005984144401A401E0590E00306D45B466D
:10D6F0002146179A059800F05DF8054414980078C3
:10D7000018B15A46179990476D1CE00324D55B4623
:10D710002146179A059800F04DF805441CE004983E
:10D72000002807DBDDE90301884203DD0098405C47
:10D73000179901E0179930205A469047049805F14F
:10D740000105401C04900198401E019004D12E2038
:10D750005A46179990476D1CBAF10001AAF1010AC7
:10D76000DDDC05E017F8010B5A46179990476D1C50
:10D77000B8F10001A8F10108F4DC5B462146179AD4
:10D780000598ABE62D0000002B00000020000000F3
:10D790002DE9F041044600251E461746880404D4AE
:10D7A00005E039462020B0476D1C641EF9D5284697
:10D7B000BDE8F0812DE9F041044600251E46904663
:10D7C000C80301D5302700E02027880404D505E0F0
:10D7D00041463846B0476D1C641EF9D52846BDE861
:10D7E000F0812DE9FC5F0025168807461580406B07
:10D7F00014468946A8464FF00C0A11234FF0020B3D
:10D8000098B101784846032E48D380F800B02288AA
:10D81000521C92B2228083542288521C92B22280DF
:10D8200009F802102088401C20803A6BDAB1208869
:10D83000494600F11205B54230D80B542088102318
:10D84000401C80B220800B542088401C20800F2078
:10D850002388155C401ECD54238840B25B1C238076
:10D860000028F5DA454697F82E0030B133462246B7
:10D87000494600F0CBFE050011D197F82D0030B1DC
:10D8800032462146484600F083FB050007D1B878B0
:10D8900020B32088C846001DB04202D95046BDE8DA
:10D8A000FC9F684679DF0028F9D12188032008F819
:10D8B000010020881921401C80B2208008F8001047
:10D8C0002088401C80B2208000EB0801BDF80000D9
:10D8D00002F06CF90146208808442080F878B8B13D
:10D8E000228897F90310D31C4846B342D6D800F8D3
:10D8F00002B022880123521C92B2228083542288D3
:10D90000521C92B2228009F802102088401C20800C
:10D910007868B8B1218890F90020CB1C4846B34202
:10D92000BCD800F801B021880A23491C89B22180A3
:10D9300043542188491C89B2218009F8012020889C
:10D94000401C2080388950B1CDE900464B46062264
:10D95000022107F1080002F092F905009FD1388AF0
:10D9600050B1CDE900464B460722032107F11000D4
:10D9700002F085F9050092D1388B50B1CDE900460F
:10D980004B461522142107F1180002F078F9050022
:10D9900085D1386A30B133462246494600F0E6FC6C
:10D9A0000500DBD1786A30B133462246494601F0A2
:10D9B00095F80500D2D197F82C0038B133462246AD
:10D9C0004946384601F05AFE0500C7D1387838B1CB
:10D9D000334622464946384601F0B2F80500BDD12B
:10D9E00028465CE710B586B018216846FEF779FD39
:10D9F00000244020ADF810008DF8004001948DF80F
:10DA00000840ADF81240684673DF08B100F080F8B6
:10DA100004484FF400310160011F0C6004600C6089
:10DA200006B010BD0C05005070B50024084D05E08F
:10DA3000686810F8340001F0EDF8641C287884421E
:10DA4000F6D304480068BDE8704000F02FB900002C
:10DA5000285F0020B4FD010070B50024064D06E0EB
:10DA60006868012110F8340001F0F8F8641C287887
:10DA70008442F5D3002070BD285F0020F8B515461C
:10DA80000C460646052A01D20720F8BD01F0C8F968
:10DA900018B901F09BF90028F7D1104900204E6019
:10DAA0000C70C1E902500E4D08610DE006EBC40098
:10DAB0006968009181788DF801100078094A6946FB
:10DAC00001F01EF90028E0D1641EE4B2EED2BDE8F8
:10DAD000F840054A0021024800F04EB8285F0020B7
:10DAE000B4FD010029E5010055E40100BFF34F8FAB
:10DAF00005480168054A01F4E06111430160BFF384
:10DB00004F8F00BFFDE700000CED00E00400FA05B8
:10DB10000EB500210091CDE901106A4644F20100E2
:10DB2000FFF7E4FF0EBD10B58268C368934203D0CF
:10DB300000F0E0FC002010BD052010BD29B112B19D
:10DB4000531E134203D0092070470E207047016016
:10DB5000838000218160C1600846704710B58268EB
:10DB6000C3689A1A83889A4203D800F0CDFC00203B
:10DB700010BD042010BD0000074B9B6823B12AB1E3
:10DB800020B10068037C1BB1082070470720704754
:10DB900041744261002070473C5F00202DE9F0474E
:10DBA0008046994614460F4690074FF0000634D140
:10DBB0001C4D8CB301F0C4FC0320C5F814902870F0
:10DBC00004F11800002107EB4703AC6004EBC1022D
:10DBD000491C167056709770506000EBC300032903
:10DBE000F4DBEE606E70AE701420FEF7F9FF0621D4
:10DBF0001420FFF716F81420FEF7FDFF0A49C1F8BC
:10DC0000008006211120FFF70CF80748001F00686C
:10DC100028610020BDE8F08701E00720FAE7AE6048
:10DC2000FBE700003C5F0020081501402DE9F843A8
:10DC3000DFF870900D461746D9F80810044651B326
:10DC40004CB3052D02D20720BDE8F883606910B3FC
:10DC5000607C012821D0002601F0DEFFD9F80810F1
:10DC6000804601EBC800694601F0F5FFB8B101211B
:10DC700000F8041B0C4910C0096880E8E200D9F8DC
:10DC8000081001EBC8009DF8001041701420FEF749
:10DC9000BDFF0020D8E70820D6E72E46DCE70420A9
:10DCA000D2E700003C5F002004150140F8B5124E99
:10DCB0000446B168E1B1DCB16069C8B100272774DE
:10DCC00001F0AAFF0546B068694600EBC50001F007
:10DCD000C2FF78B1022101704460B0689DF8001065
:10DCE00000EBC50041701420FEF790FF3846F8BDE8
:10DCF0000820F8BD0420F8BD3C5F002070B5044644
:10DD0000234888B01E460D00426035D0A888296897
:10DD100082B22048FFF712FF00282ED1A889A968F7
:10DD200082B21C481030FFF709FF002825D12022BD
:10DD300019496846FEF7BCFBA0680690207900B13F
:10DD400001208DF814008DF81C60607900B10E2060
:10DD50008DF81500E0780290A0780390207801906B
:10DD6000607800900D49684601F064F8002804D1FD
:10DD70009DF81D0018B104E0072008B070BD01F047
:10DD8000E9F803480121401C01F09EF8F5E7000086
:10DD9000205F0020E062002074FD010025F90100F1
:10DDA00010B501460948FFF7D9FE04000CD101F077
:10DDB000FFF948B906490548FFF7B5FE20B901212A
:10DDC000034801F06DF90446204610BDF0620020C2
:10DDD000205F00202DE9F04104460078184F01260D
:10DDE00006FA00F03860206801F01CFA0021606833
:10DDF00001F008FA1348144D007FA069C5F8240506
:10DE0000607D217D0843C5F86C05D4E90001C5F8A3
:10DE10000C05C5F81415207D01280FD10021A0683C
:10DE200001F0F0F9207B86403E60E06801F0FAF9ED
:10DE3000D4E90201C5F80815C5F81005BDE8F08160
:10DE4000080500505863002000200040F0B50C4643
:10DE500093B01F210726ADF80010ADF8041000277D
:10DE600050B1C17849070DD56A4602A9FFF7B9FC40
:10DE7000002808D102AD02E00025ADF800706CB1B9
:10DE8000E07810B1304613B0F0BD01AA0AA92046CF
:10DE9000FFF7A7FC0028F6D10AAA02E00022ADF89D
:10DEA0000470BDF80400C3B2BDF80000C1B228463A
:10DEB00072DFE8E770B5054601461C220F48FEF701
:10DEC000F7FA0F4C00262670286830B101686160AF
:10DED0004068A060201D7ADF02E00948001D7BDF5A
:10DEE00000280AD14FF6FF7060806670BDE8704070
:10DEF000044A00210448FFF73FBE70BDC462002001
:10DF00000C5F0020B9FB010060FD010070B51E4CE4
:10DF1000068800251B49E289102E15D01B4B112EB7
:10DF20001CD0122E29D0502E17D130F8061F914246
:10DF300013D14189022910D1007B10F0010F11D0BB
:10DF4000BDE8704000F058BA83884B808369CB608D
:10DF5000C06908614D70002AF2D070BD4FF6FF70A5
:10DF600048804D701868FFF7A1FE0028F5D0A16920
:10DF70000029F2D0BDE8704008478268CA60C068D6
:10DF80000861DDE70C5F0020C462002060FD010035
:10DF90007CB5054608880C460930904201D90C2012
:10DFA0007CBD684671DF0028FAD1218808206854BA
:10DFB00020881B21401C80B2208029542088401CCE
:10DFC00080B220802844DDF801100160BDF8051002
:10DFD00081802088801D80B220809DF8001001B1D2
:10DFE000012129542088401C208000207CBD000095
:10DFF00010B5044601F060F92046FFF787FF21467F
:10E00000BDE81040014800F031B8000088620020EF
:10E0100030B5044685B04FF6FF70A082124B0868F9
:10E020000D46A0610FCB8DE80F0004F11201684688
:10E0300063DF002816D1A07C8DF8120041F2235036
:10E04000ADF81000224604A90120A0DF002809D164
:10E050002946204600F07AF8002803D129462046B8
:10E0600000F0FEFA05B030BD64FD01000A88102AF8
:10E0700010D0112A10D0502A11D131F8062F438820
:10E080009A420CD14A89012A09D18269002A06D014
:10E09000097B1047898801E04FF6FF718182704744
:10E0A00003B585B0012100220092ADF81010019255
:10E0B000029203928DF802104189ADF8001006A972
:10E0C000039104A90291808A6946A6DF07B000BDCA
:10E0D00000B51A4889B000234068079048221849C3
:10E0E00007A801F039FB08B1FFF712FD6A460121CC
:10E0F000002001F01BFB08B1FFF70AFD114801F0F9
:10E1000071FA08B1FFF704FD684601F005FB08B19C
:10E11000FFF7FEFC05A871DF08B1FFF7F9FC05A9C0
:10E12000002070DF08B1FFF7F3FC074801F0EAFABE
:10E13000002801D0FFF7ECFC09B000BD4CFD010048
:10E1400040610020E81F0020F1DF010030B58FB0F2
:10E150000024054607949DF81C001C2120F00F00A8
:10E16000401C20F0F00010308DF81C009DF81D00C0
:10E1700020F00F00401C20F0F00010308DF81D0042
:10E180009DF81E0020F00600801C8DF81E006846D9
:10E19000FEF7A7F99DF80000019440F012008DF8F9
:10E1A000000007A8CDE9044003940694A87C8DF8EC
:10E1B0003A0041F22450ADF838000D949DF8340037
:10E1C000142120F00F00401C20F0F00010308DF8DA
:10E1D00034009DF8350020F0FF008DF835009DF8E3
:10E1E000360020F00600801C20F019008DF8360063
:10E1F00008A8FEF776F90EA808900DA8099001204E
:10E20000ADF82800ADF82A40ADF82C000C94288811
:10E2100005F10A0308AA6946A2DF0FB030BD00006D
:10E2200010B50D280AD10848FFF73AFF002809D099
:10E23000A0F54051023905D0082803D0BDE81040B0
:10E24000FFF766BC10BD00008862002005494FF052
:10E25000FF32082841F8202002D3084480F84820E3
:10E260007047000000630020F0B54FF0FF3512B199
:10E270000023082601E008230C260C4C05E000BF13
:10E2800054F823707F1C04D05B1CB342F8D328469B
:10E29000F0BD26185DB286F8305044F82310002AED
:10E2A000F5D1E11881F84800F1E700000063002093
:10E2B0000249084490F930007047000000630020D4
:10E2C0002DE9F05F2648C168F1B3DFF898B00E6819
:10E2D0008146DBF800400769C078E11B21F07F45EB
:10E2E000ED1CB0B9DFF880804FF48030C8F84403EB
:10E2F000C8F804031120FEF773FC1120FEF77BFC25
:10E300004FF0010AC8F800A02F20FEF783F889F823
:10E3100003A0B54200D23546124BE8193C3320F039
:10E320007F401860DBF800105A46091B21F07F413E
:10E33000001B20F07F40C91C81420FD91068186073
:10E340002F20FEF767F800E004E0BDE8F05F112041
:10E35000FEF75CBCBDE8F05F01F0F2B8BDE8F09FED
:10E360003C5F002004150140001001402DE9F04100
:10E3700017880646B81D14460D46984202D90C204F
:10E38000BDE8F0813188072206290AD34FF4486C92
:10E390004FF6FF73614501D9994202D17088062872
:10E3A00001D21046ECE7604501D99842F9D1994273
:10E3B00003D0984201D08142F3D80520E855208847
:10E3C0001221401C80B2208029542088401C80B239
:10E3D00020804119308801F0E9FB2188084480B28F
:10E3E00020804119708801F0E1FB218808442080D9
:10E3F0000020C5E7FFF78CBBF8B5134800F0F8F82C
:10E40000114D0026114C0C3D30B16169B9B10120AC
:10E410008DF80000684611E0287820B1616971B17B
:10E420008DF80060F6E7687858B1A16808480022C6
:10E430000068FFF7FBFB10B1A16901B188472E709E
:10E44000F8BD6168F2E70000185F0020C462002098
:10E4500060FD01002DE9F04100260125144C22E069
:10E460006068226900EBC607387805FA00F11142AE
:10E4700017D08A43226100F09FFC02463878E36897
:10E4800005FA00F1194002FA00F3994209D17978AE
:10E49000012901D0012100E0002151407A6802B138
:10E4A0009047761CF6B220788642D9D3BDE8F08139
:10E4B000285F00200E4910B54A788C780023A242CC
:10E4C00012D0521CD2B24A70022A00D14B70084AB4
:10E4D0004B78183252F8232002600869104420F06B
:10E4E0007F400861012010BD0360002010BD0000C6
:10E4F0003C5F0020826883881A4003689A5C0A7037
:10E500008168491C81607047C26883881A4003682B
:10E510009954C168491CC160704710B50446C0B227
:10E52000FFF73EFC204610BD2DE9F041124E074694
:10E530000125BD403068FFF7B9FB00280DD10F4C15
:10E540002069284207D1384600F036FC0028E068F0
:10E5500005D0284304E0A8432061BDE8F081A8432A
:10E56000E060206928432061A1683068BDE8F0417F
:10E570000022FFF75BBB0000B4FD0100285F002014
:10E58000F8B51A4C207800282ED0206928B1002632
:10E59000E06820B1002526B110E00126F8E701254A
:10E5A000F9E7684652DF052803D020B1FFF7B0FA3B
:10E5B00004E0012602E021690098884785B9608857
:10E5C000ADF800006946A06861DF052803D020B1DE
:10E5D000FFF79EFA04E0012502E0D4E90201884732
:10E5E000002EDED0002DD6D0F8BD0000605F0020E8
:10E5F000054940880A88904204D34988884201D856
:10E600000120704700207047105F002030B514884B
:10E61000E51C9D4201D90C2030BD02250D55138803
:10E620001C245B1C9BB21380CC5413885B1C9BB2D4
:10E630001380012807D0022807D0032807D0042818
:10E6400007D0072030BD002004E0012002E0CD54B7
:10E6500001E00320C8541088401C1080002030BD09
:10E6600030B58FB005461C216846FDF73AFF0024FF
:10E670009DF80000019440F00A008DF8000003941A
:10E68000049405940694A87C8DF8360041F2255038
:10E69000ADF834000C949DF83000142120F00F00E8
:10E6A000401C20F0F00010308DF830009DF8310053
:10E6B00020F00F00401C20F0F00010308DF83100E9
:10E6C0009DF8320020F00600801C20F019008DF823
:10E6D000320007A8FDF705FF0DA807900CA80890C9
:10E6E0000120ADF82400ADF82640ADF828000B94C9
:10E6F0002888AB1C07AA6946A2DF0FB030BD000016
:10E7000010B50C461BA0FEF703FC0B2C30D2DFE843
:10E7100004F02F06080A0C11111111161A00162008
:10E7200004E0172002E0182000E01920BDE81040A6
:10E7300000F090BD2046BDE8104000F07BBEBDE873
:10E74000104000F01FBE11490F480860091D40F23B
:10E75000CF7008600320091D0860091D44F2536052
:10E7600008600A4900200C390860094901208860C6
:10E7700010BD00000D0A52656365697665643A2034
:10E7800025640D0A000000009420002020C50140EF
:10E7900000C001402DE9F047DFF8ACA0DAF80C002A
:10E7A0009AF8004080469AF80460DAF80890DAF89F
:10E7B00010703AE009EBC4052A7833E002EB42011D
:10E7C0006B68521C03EBC101AB78D2B2934200D10B
:10E7D00000220B78022B02D0032B23D11FE0D1F8AB
:10E7E00004C00346014603E0614503D00B46C969F6
:10E7F000C1B1F9E7B1B18B4205D1C06918B9134F66
:10E800000126BE600027D1F800C0C969D96149B1AD
:10E810000B6863440B6005E00174C06900E00021EF
:10E820000028F9D169789142C8D1641EE4B2C1D2FE
:10E83000CAE903078AF80460404502D00120BDE818
:10E84000F0870020FBE700003C5F00200010014043
:10E850002DE9F04705462F48002680460778D0F876
:10E860000C904BE0D8F8080000EBC70440E002D061
:10E870002846ED691EE02078616800EB4002401CEC
:10E88000C0B201EBC2012070A278904200D1267084
:10E890000A784868012A2DD1027C5ABB8A684260F6
:10E8A000CA6882600A69C2604969816198F8041087
:10E8B00001B146604268D8F81030DFF85CC0D11A68
:10E8C00021F07F41614502D28268114406E0991A25
:10E8D000826821F07F418A4202D9511A016000E02A
:10E8E00006604660012186600174C66100F094FFF5
:10E8F000002DBCD1207861788842BCD17F1EFFB248
:10E90000B0D2D8F80C10494502D00120BDE8F087FC
:10E910000020FBE73C5F0020FFFF7F00604E9EB0C1
:10E9200006F1080004AB07C883E807005D4801252D
:10E93000CDE900055C4802902802039006235B4A5B
:10E94000694604A8FFF7DAF908B1FFF7E1F80024F7
:10E9500005FA04F010F4F01F02D0204600F05BFC32
:10E96000641C202CF4D352494FF4F01008600024AA
:10E970000F1D3C60162000F04EFC172000F04BFCF1
:10E98000182000F048FC192000F045FC1F203860DA
:10E9900000F070FD0023474A05211846FFF7FEF8F6
:10E9A00008B1FFF7B5F83F4840F2666201210C302C
:10E9B000FFF764F808B1FFF7ABF8FFF789FB9DF8A4
:10E9C00008003DA120F00F00401C20F0F0001030A6
:10E9D0008DF80800102202A87CDF08B1FFF798F834
:10E9E00000945020ADF80000A0200194ADF8020082
:10E9F000ADF804404FF4C870ADF8060068467ADF01
:10EA000008B1FFF785F83148009069463048FFF7B4
:10EA1000FFFA08B1FFF77CF830681C902C483821C9
:10EA2000807C8DF872006846FDF75BFD02208DF852
:10EA300000008DF8025006208DF8030038210EA842
:10EA4000FDF74FFD1CA81390ADF848500EA968467D
:10EA5000FFF7FCF908B1FFF75BF81C216846FDF7EA
:10EA600040FD4FF42020CDE90040801002900320AB
:10EA70008DF80C001748059017480690ADF80E4029
:10EA80008DF810406846FFF715FA08B1FFF740F817
:10EA9000FEF7A8FF48DF0028FCD0FFF739F8F9E7B8
:10EAA0004CFD0100802000208861002021F9010038
:10EAB00008050050785F00204D794465766B6974D5
:10EAC0004E6F74596F7572730000000001E701000A
:10EAD0008862002039F30100F5E3010070B51446A7
:10EAE00082880E4605462088111D0144921C9942D9
:10EAF00001D8FE2A01D90C2070BD521C3254208846
:10EB0000FF21401C80B2208031542088401C80B2FC
:10EB100020808119288801F049F82188084480B2B2
:10EB20002080AA8842B1A96841B13044FDF7C0FCF9
:10EB30002088A98808442080002070BD072070BD6F
:10EB4000F8B50E46017814460546012901D16878CA
:10EB500030B12088821C9A422DD8012902D006E0CB
:10EB60000720F8BD69780144891C994223D8181AF6
:10EB7000801E87B2ADF800702188B01C0844694639
:10EB80007DDF0028EDD12878022805D1BDF80010DE
:10EB9000B94201D809210AE00821012805D1687885
:10EBA000B84202D8ADF8000001E0ADF80070BDF841
:10EBB0000000FE2801D90C20F8BD2288401CB0546A
:10EBC0002088401C80B2208031542088401C208046
:10EBD000BDF80010084420800020F8BD4907090E48
:10EBE000002806DA00F00F0202F1E02282F8141D7C
:10EBF00003E000F1E02282F8001400F01F0201217E
:10EC000091404009800000F1E020C0F88012C0F877
:10EC10000011704710B5044600F09CFB28B1204657
:10EC2000BDE81040002100F007BB204600F09EFB2D
:10EC300000280FD02046FFF73BFB074A02EB80017C
:10EC4000D1F8103523F00103C1F8103501218140BE
:10EC5000C2F8081310BD0000006000402DE9F04725
:10EC60008846814600F076FB0124224E0028484663
:10EC700018D0FFF71DFB304490F8480080090328A6
:10EC800002D0012806D007E01B48006804FA09F406
:10EC9000204201D1022100E003214846BDE8F047AF
:10ECA00000F0CABA00F062FB002820D04846FFF707
:10ECB000FFFA0546114F4FF4807007EB850100EB1A
:10ECC0008500D1F8102580B242F00102C1F810256C
:10ECD00000F0D0FAB8F1000F09D04846FFF7E8FA83
:10ECE00056F82000002802D0AC40C7F80443BDE825
:10ECF000F087000000630020100500500060004015
:10ED00002DE9FC41DFF8A480044608EB040000274D
:10ED100090F930001346C0170E46401C01D008275A
:10ED200040E0F27819462046FFF79EFA0546401C5F
:10ED300037D0B07848B1A00000F1A040D0F800175B
:10ED400021F00201C0F8001707E000217378204687
:10ED500000910A46019100F033FAF078C0B11448EE
:10ED6000317800EB8500D0F81025124B1A40C0F81E
:10ED700010254FF4F8524FF4403302EA042203EA1C
:10ED800001410A43D0F810150A43C0F8102509E0E4
:10ED900008EB0500327810F8481F41EA8211017033
:10EDA00000E004273846BDE8FC8100000063002035
:10EDB00000600040FFE0FCFF03490968C14011F01A
:10EDC000010000D0012070471005005070B5124DB1
:10EDD00095F8540008B1082070BD0020411E2A1883
:10EDE000401CC0B282F830102028F8D300242046FE
:10EDF000FFF72CFA641CE4B20C2CF8D30621084669
:10EE0000FFF7ECFE05494FF00040C1F80403012074
:10EE100085F85400002070BD0063002000600040B1
:10EE2000034890F85400002800D0012070470000EB
:10EE3000006300202DE9F0411E4C07460D46E07EA0
:10EE400010B10820BDE8F08107B91B4F787F20770B
:10EE50003846FEF7BFFF6560386920602800174E0E
:10EE60004FF0000516D0397F207F48B1C6F8105109
:10EE7000C6F82051C6F82451C6F84451104804E0A1
:10EE8000C6F81C51C6F844510E48C6F804030220C7
:10EE9000FFF7A4FE207F08B1082000E00420C6F898
:10EEA0000005E5752576A5750120E076A57600209C
:10EEB000C8E700005863002094FD010000200040D6
:10EEC00010030200800002002DE9F0411F4B1C7F5F
:10EED0003CB14FF40052B2EB104F02D01020BDE80D
:10EEE000F081D3F804C00022194D4FF404764FF49A
:10EEF0000177BCF1000F05D014B1C5F8086301E03B
:10EF0000C5F8087393F817E0BEF1000F10D01A7E11
:10EF100052B1BCF1000F05D014B1C5F8046301E093
:10EF2000C5F804731120DAE718610122197604E0AC
:10EF3000D9750025D8605D761D761CB1BDE8F0411D
:10EF400000F066B8BDE8F04100F014B85863002046
:10EF50000020004010B5064C207F002806D1A07E7E
:10EF6000002803D100F032FB0120A07610BD000084
:10EF7000586300202DE9F05F234DA87E104301D196
:10EF800000F024FB214C686830B14FF40170C4F8E4
:10EF900004030020BDE8F09F4FF000094FF4A27A6F
:10EFA000C4F844914FF4927BA8465946204600F09D
:10EFB00073F905464FF48471204600F06DF9074659
:10EFC0005146204600F068F9064647EA0601294303
:10EFD000EBD055EA060007D100F0D0FA98F81710E8
:10EFE00098F819008142E0D888F817900DB10320F5
:10EFF000D0E70EB10F20CDE798F81A10012009B123
:10F000002060C6E76060C4E758630020002000402D
:10F010002DE9F05F204C00264FF48873C4F810618E
:10F020004FF4A275C4F84461C4F83405C4F8381527
:10F030008AB1D4F8000240F02000C4F80002DFF8E2
:10F040005C80D8F8040048B14FF40470C4F804039D
:10F050000020BDE8F09F01202060F0E79A46A94615
:10F060004FF4927B5146204600F021F9054649466F
:10F07000204600F01CF907465946204600F017F9D3
:10F080003D430543EED088F8176008B10320E0E760
:10F09000002FDDD00F20DCE7002000405863002067
:10F0A0002DE9F047204D0246287F38B14FF400503B
:10F0B000B0EB124F02D01020BDE8F08700F078F8D6
:10F0C00008B11120F8E7A9750023AA60AB82287F58
:10F0D00028B3164C00264FF490709846C4F820319F
:10F0E0004FF4AC73C4F85881C4F84425C4F84815EB
:10F0F0000121A160696881B982469946514620463E
:10F1000000F0D5F807464946204600F0D0F80743FE
:10F11000F4D000B10F2685F816803046CCE7BDE864
:10F12000F04700F005B800005863002000200040C0
:10F130002DE9F05F1C4F00254FF48E7A2E46C7F85C
:10F140001C514FF00108C7F8088000F0C5FB174CB0
:10F15000B815616879B123E05F465146484600F032
:10F160009BF810B9A08AB842F7D1A08AB84204D05F
:10F1700000F0B2FB01E08346B946A08AA17D884237
:10F18000EAD3A08A584501D10F2508E04F465146E1
:10F19000384600F081F80028F9D0C7F80C80A67531
:10F1A0002846BDE8F09F0000002000405863002082
:10F1B0000248807D002800D001207047586300205D
:10F1C00030B541EA4201DDE9034541EA83018000AF
:10F1D00041EA042100F1A04041EA0541C0F80017CE
:10F1E00030BD30B541EA4201DDE9034541EA830122
:10F1F000800041EA042100F1A04041EA0541C0F845
:10F20000001730BD1CB500220B460092114601923A
:10F21000FFF7E7FF1CBD0321800000F1A040C0F80C
:10F22000001770471CB5002100910B460122019187
:10F230001146FFF7D6FF1CBD800000F5E06000F12D
:10F24000A040026822F440320260026842EA0141B2
:10F25000016070470121814005480068044B21EAA4
:10F2600000021B1D1A600840191D0860704700004D
:10F2700004050050034908B50844002101600068F6
:10F28000009008BD0060004002494058012800D0AD
:10F2900000207047006000404058002800D0012046
:10F2A0007047D0F80403084000D001207047405850
:10F2B000002800D00120704770B51D490688002243
:10F2C0000B1F1C4C4FF48025102E0CD0112E15D086
:10F2D0002046132E40881FD0522E27D100231A46D5
:10F2E0001946A9DF1CE00D601A604FF400351D605F
:10F2F0000A6080886080FEF7AFFB11E01D600A6045
:10F300004FF6FF706080FEF78FFB08B1FEF700FC40
:10F31000BDE87040FEF766BB00231A4685217FDFFB
:10F32000002803D0BDE87040FEF7F2BB70BD0000BE
:10F330000C050050802000200078002807D10448E8
:10F340003B21408876DF002801D0FEF7E1BB704703
:10F35000802000200449084490F93000082801DB8F
:10F3600001207047002070470063002004490844D2
:10F3700090F93000082801D2012070470020704722
:10F38000006300202DE9F0432448254A0321141D81
:10F39000251DD0F808C02F1D40F2CF7344F25366EC
:10F3A0004FF001094FF00008BCF1000F17D0BCF17D
:10F3B000010F1ED0BCF1020F26D0DFF868C0C2F8E2
:10F3C00000C0236029603E60C0F8088014480C38F3
:10F3D000C0F800801449C1F80890BDE8F083DFF858
:10F3E0004CC0C2F800C0236029603E60C0F808909D
:10F3F000ECE7DFF828C00CF1140CC2F800C0236061
:10F4000029603E60022106E0DFF824C0C2F800C097
:10F41000236029603E608160D8E7000080200020E2
:10F4200020C50140D03F002000C001406E4F0020A9
:10F430003230002010B501210B4B0C4C0C4A052832
:10F4400007D0062803D0072807D0082800D151602C
:10F4500010BD596040F2A46002E0596040F2E24001
:10F460002080916010BD000000C001408620002077
:10F470000010024070B50125A8070560D0F8001102
:10F480000029FBD00024C0F800410C20FFF7C3FE88
:10F4900027490C200860264A4107121D1160121DE1
:10F4A0004FEAF0011160491C121D116020496039BA
:10F4B0000D60091D0C601E4954390C601C4A8915E9
:10F4C000583A11601A4950390C60091D0C60184AED
:10F4D0001849203A1160111D0D60091D0C60091DAD
:10F4E0000C60154A04211160134954310860124818
:10F4F00008380460101D0460001D0460111F40F6F0
:10F50000C41008600C48183005600B4820300460B7
:10F5100008480949801C1431086007481C30046001
:10F520000648C0F8004204480C38056070BD000071
:10F5300060C50140842000200C15024000100240EC
:10F5400070B5012670044FF0E0210025C1F880015C
:10F55000084C4010C4F84803C4F8080366602F2024
:10F56000FCF758FFA660044C2F202561FCF752FFE2
:10F57000E57070BD001001403C5F002009480A4959
:10F580000022C37DC1F8082143B1D1F81815437E8C
:10F59000C268D154417E491C41767047D1F81805A4
:10F5A0007047000058630020002000401FB5012272
:10F5B0008DF8080004488DF800200191D0E9001270
:10F5C000684690471FBD0000586300200448002192
:10F5D000C0F82411C0F80811012101607047000033
:10F5E0000020004008B502490020009108BD00003D
:10F5F0008020002010B50121202803DA1D4A814017
:10F60000114004E0402803DAA0F12002914041B10A
:10F61000002809DA00F00F0101F1E02191F8141D32
:10F6200006E042F2010010BD00F1E02191F8001463
:10F630004909082914D299B1012911D004290FD000
:10F6400005290DD00C4A946800F01F030121994050
:10F65000400944B152F820300B4342F8203007E013
:10F6600042F2020010BD800000F1E020C0F800115D
:10F67000002010BDFC06FFBC986300202DE9F0417E
:10F680000746806A14468846C8B3002531E000BFAB
:10F69000B96A05EB450001EB8006B088801CFE28A6
:10F6A00002D90C20BDE8F0812288401C08F8020035
:10F6B00020881622401C80B2208008F80020208874
:10F6C000401C80B2208000EB0801308800F06EFA08
:10F6D0002188084480B22080B28842B1B16871B1FB
:10F6E0004044FCF7E5FE2088B188084420806D1C6A
:10F6F000EDB297F82C00A842CAD80020D2E7FFE765
:10F700000720CFE718B10349C860002070470E20DA
:10F7100070470000605F00201CB503490191009113
:10F72000694660DF1CBD00008020002070B50E46D9
:10F730000546144614211046FCF7D3FE0120208014
:10F740000021216121732672657205B1A07200202B
:10F7500070BDFEF7CBB9000030B409B18C0702D000
:10F76000072030BC7047074C0125A1606280064924
:10F77000636010DF0028F4D1257030BC1620FFF73D
:10F7800039BF0000605F002053F701002DE9F84FFA
:10F79000204C00256846D4E903B6FEF78BFE804670
:10F7A000FEF7F8FF0746A946B8F1000F25D0002361
:10F7B000009ACC46E06819E007680146974202D9F2
:10F7C000BA1A026014E0C1F800C0D1F80C80D21B54
:10F7D000C8693B448A46B8F1000F07D0F71827F0F4
:10F7E0007F47C1E90178CAF81C500D460028E3D1D3
:10F7F000E0602846FFF72CF804E02846FFF728F8D9
:10F8000000B917B15846FEF75BFD84F80490BDE8D7
:10F81000F88F00003C5F00200D4B10B5D96831B166
:10F8200002680C68A24204D8A21A0A60C161D860BA
:10F8300010BD0B4603E00B46C969121B21B10C68D1
:10F840009442F8D3A41A0C600260C161D86110BD63
:10F850003C5F00202DE9F0411D4DEC68002C35D0B7
:10F860001C48002700682969B846401A20F07F46E6
:10F870002068B04215D82246361A0744E469107C45
:10F8800068B182F810806B6933B1D2E905019847FD
:10F8900028B1FEF73DF902E0D2E905108847002CB7
:10F8A000E6D16978A878814206D1401CC0B2A87020
:10F8B000022801D185F802800548A978183040F85F
:10F8C0002170BDE8F0411420FDF7A0B9BDE8F0813A
:10F8D0003C5F002004150140064A0020C2F81C01CC
:10F8E0000548838A8168C95C838A5B1C8382C2F86D
:10F8F0001C15704700200040586300201FB50021F0
:10F900008DF8080005488DF8001082680192817515
:10F91000D0E90012684690471FBD000058630020E0
:10F92000704700007CB50178264D012909D00229D5
:10F930002CD0002929D129462348FEF7F4F880B3BA
:10F9400034E04068017820481038FEF707F91E4C73
:10F95000103C20B101218DF80010019007E0A06853
:10F96000E168081A012805D100208DF800006968B7
:10F9700068468847A068E168081AA188884204D8C8
:10F9800010480121401CFFF79FFA7CBD02218DF831
:10F990000010C06801900B480121401CFFF794FA49
:10F9A0000CE0FFE701210748FFF77AFB0648816872
:10F9B000C0688842E9D103208DF800006968684674
:10F9C00088477CBD205F0020F06200202DE9FF41C8
:10F9D0003E4D4FF400712846FFF763FC01273C4C75
:10F9E0004FF40178002600B34FF492712846FFF7D8
:10F9F00053FCD0B1C5F82461C5F80883A07E00B9D6
:10FA00006F6002208DF80000D5F88004C5F88004EE
:10FA10000390E07D8DF80800E0680190E675267699
:10FA2000D4E900126846904724E004212846FFF7F5
:10FA300038FCF8B14FF484712846FFF72DFCC8B1AB
:10FA4000FFF79CFDE07D617E884213D1227E3AB1B2
:10FA5000607EE168E2752269E2602676667607E0FC
:10FA6000A07E00B96F60C5F80883E675607EE16826
:10FA7000FFF79CFD4FF48E712846FFF70DFC58B13F
:10FA8000A18AA07D814202D2FFF726FF04E0C5F8DB
:10FA90001C6108B1FFF732FF4FF4A2712846FFF74F
:10FAA000FBFB00280FD0C5F84461A07E00B12F6099
:10FAB000E07D002807D0E675607EE16804B0BDE80F
:10FAC000F041FFF773BDBDE8FF810000002000405A
:10FAD000586300207FB5334C4FF492712046FFF7F6
:10FAE000E6FB314D0026B0B1C4F8246102208DF848
:10FAF0000000D4F88004C4F880040390D4F83C05D6
:10FB00008DF80800E8680190EE752E76D5E90012B0
:10FB1000684690471FE04FF488712046FFF7C7FB07
:10FB2000C8B1C4F81061D4F83C05E97DC0B2814287
:10FB300011D12A7E5AB1E968D4F8003223F02003AB
:10FB4000C4F80032EA752A69EA602E7601E0EE75A3
:10FB5000E968FFF72BFD4FF4A2712046FFF7A7FBE2
:10FB600050B1C4F84461E87D30B1EE75D4F83C057D
:10FB7000E968C0B2FFF71AFD4FF490712046FFF715
:10FB800096FB00280CD0C4F82061A87D002807D07F
:10FB9000D4F84C0504B0C0B2BDE87040FFF7AEBE6B
:10FBA0007FBD000000200040586300200870000A5C
:10FBB000487002207047000038B515494888A0F504
:10FBC0007F42FF3A23D04A78124C521CD2B24A707C
:10FBD000237B93420AD3091D75DF002817D0A16942
:10FBE000002914D001B0BDE83040084700254D7011
:10FBF000217C29B13B2176DF10B1A16901B1884791
:10FC00006169002903D08DF800506846884738BDE7
:10FC10000C5F0020C4620020EFF30580C005C00D1A
:10FC200013D0103840B2002806DA00F00F0000F1BF
:10FC3000E02090F8140D03E000F1E02090F80004BB
:10FC40004009022803D0062803D002207047002074
:10FC500070470120704742788378521CD2B2934299
:10FC600000D100220378934201D1002070470A702E
:10FC70004168407800EB400001EBC00070472DE97F
:10FC8000FC411646DDE90854CDE900541F46804684
:10FC9000022200F00CF8002807D1CDE900543B46C1
:10FCA00010223146404600F002F8BDE8FC812DE903
:10FCB000FC5F0026DDE90C4B994692468E46804655
:10FCC0002788354630E0D8F80400002200EB850094
:10FCD00069460068019001A865DF002830D19DF8D1
:10FCE000000050451FD10EB1002100E00221228802
:10FCF00008441118594522D846B9521C90B22080A8
:10FD000009F800E02088401C20800126218801A8F5
:10FD100001EB0902694665DF002811D120889DF8B2
:10FD20000010084420806D1CB8F80000A842CADC0E
:10FD300056B12088C01B401E80B2FF2802D90C207B
:10FD4000BDE8FC9F09F807000020F9E72315000033
:10FD500001000007080605070100000000E0D701C8
:10FD6000A462002023D1BCEA5F782315DEEF1212D3
:10FD7000000000000600000008000000070000006E
:10FD80000500000000000000000000000000D60197
:10FD90000600000006000000080000000700000048
:10FDA0000500000000000000000000000000D60177
:10FDB000060000007863002003000000DCFD010065
:10FDC00080200020F83E000038CA0100B82602005A
:10FDD000785F00203024000040CF0100100A0000AE
:10FDE000FFFF0000E2040001700A0D00030021E2A1
:10FDF00001008002127F04127E062104F28002813B
:10FE00001E21202102B27E3AB2803610047F00818A
:10FE1000444104810AC10412821CD282027281040C
:10FE200021362138215C727F0261A0527E76411E0C
:10FE3000219430047E007D02527E98414841BA618F
:10FE40001A2196100682008300850232831E100854
:10FE50007E007C007A007B06527D362120728178FC
:10FE600061A83283164198A1D6211A100482008419
:10FE7000543284C021A4418481AA2198727C7E528C
:10FE80008296616E213C52818A210221EC21A4528A
:10FE900083562160328146100C7A0076007500731B
:10FEA00000720074081279B8127C0610087700718D
:10FEB000006D006B0212710C100C81008A00900022
:10FEC000970099009C02100AA000A400AB00B000AB
:10FED000B302100CAF00A6009D0094008F008C04AC
:10FEE000129126128C58100E7600690062005E0096
:10FEF00060006300680C10046900640C125B02125D
:10FF00005D18126614126A1810046700650E1262FA
:10FF10001C12676C126F84210214047600783A1266
:10FF200081A812877610048A008B7C128C06128DB1
:10FF30000210069000930098801006A500A900AA60
:10FF4000841004AB00AC0612AA10129F1812938200
:10FF5000210212939032930E14048C00868E127834
:10FF6000CC1008690061005A005502100456005C6C
:10FF70000C126782126C04326988126B7E127578DB
:10FF80003278FA167712250C36720421AA1266C44A
:10FF90002124252416794A1008890092009A009E8F
:10FFA00076129AFC128D9E10048B008EFE12969E85
:10FFB000329DA012A6A212A70616A23212952212F4
:10FFC000898A12840412863C328ACA16944A100422
:10FFD000A200A8021404A700A354129C5212954632
:10FFE00016837E126E74166318166236100A580055
:10FFF0004D003D003000270210082C003700420061
:020000040002F8
:100000004EC4165A4A165D5E166C9E12868E329843
:1000100040169722218E2504129602169590168B73
:1000200004167ED225E41675CC299829B829B6166F
:1000300085B6218A16932A1A85B625FC5A7D9849D9
:100040007A210C41B81A8430167C24292A214A1EB0
:100050007B120312837C168C94129CC216AA8C10FD
:1000600004AC00AD0216AC9C16A90432A1D21690C5
:100070001A368EC21A86CA167B58166CF8125ED8CB
:100080001404550053901257C81A64001671742155
:100090005A41A62904327AB63671821A6536166438
:1000A000141A5F46100654004F004902124B0A16FC
:1000B0005D9A12738A12888616997C5A9B0825923B
:1000C00021DC21163A9E301AAEAC1AAF2E12A79838
:1000D0003299F21689C8168BB61A975212A71E10BB
:1000E0000CB500BC00C300C800CF00D1021806CD7B
:1000F00000C200B65A1A96883E7D1003126C801416
:10010000045800488414102600180010001100152F
:10011000001E0024002998180830003600430052C1
:100120002A12798C12900221841A8C16292A1E9F79
:1001300032035AA6A62D2203217829DC3685542DB8
:10014000C6031A86141E966003129B041694301E72
:100150008560041E780C03298A1A737A1E6B360395
:100160001A66B62988166A12250E3E613E032928B2
:100170003E64540338046D0070C6167D981E89B025
:100180000312954E2DAC0312AAFC1004B300B4CE9A
:1001900012B70412B502210C12B50C16B3AE1AA395
:1001A000361A88741E6CA4033A5E563E619203525E
:1001B00066042D2A031E6AA003126E02126C7E2DA5
:1001C000CE031A6B783E6D1C031E67D80316599038
:1001D000140A450040003C003F0044961657D01ECC
:1001E0007434043E8EAC0312A3FC1EA1160321023C
:1001F000129F0A12A69016B06C16B96E12BD0212AA
:10020000B9901EAE06031EA15C0421FE1E995A037E
:10021000210445361406B000BB00C58C1004CD0087
:10022000C63016AC422D6C042D72031A854C126B2D
:100230007C140447003A7E162994140621001C0001
:1002400016981E0B860612120C122A1A1A4E221229
:1002500068BC166F1C16731C3A80F46D2404169447
:10026000241E98CA031E9BDC043293544D30051E95
:1002700083F0041A9318218A12972221021E96DE17
:10028000042D26031E801E053E76AC041271023238
:10029000705C250C45122DC804566F2E3A70D42D73
:1002A00072033E7C48031688E41E952C031EA62686
:1002B0000316B30012BADC12BB061004BD00C0DE88
:1002C00012C9E612CCEC16BC941E9FB8032DB603DF
:1002D0001E7684041E6C28051E634A05259A365C2A
:1002E000A0165DA81E5C4E053E5942031E524403F3
:1002F0003E59D404290C3E612003164A8A3806363A
:10030000002E002B9A1C043A0046F6041E63BE041D
:100310003A7D9C21DA2DCC0521FA1E9D840414041B
:10032000AA00B2661AC2FA12C9021404C600C19A1F
:100330001AB8241EB230031EA9C2041E97C0032D92
:100340002C0316929212AF2A12C0221ABB3E1EB084
:1003500052031EAD580332AD261698941E7F6A05CF
:100360003E67DC031650981C043B002D2003140448
:1003700013000C90100811001B002500318C1E4545
:10038000D0041E551C061E66F4031A76FA1684184D
:100390003E8912051E97AA032D38051AA932169F09
:1003A000923E9238052D04063E8C4A031E90E804C6
:1003B0003E96860652991E258E1E7CB0053E7422FE
:1003C0000329B43E662A044D2C032D68063A68AC16
:1003D00045FE2DDE064DFC04327B022D12071E8BDE
:1003E000BE041E9F20042D4E064D540612B1FC166D
:1003F000C08E1004CF00D2021006CD00C700BEECA4
:1004000032ABE21E8F94062D50061E730E034D1E56
:10041000074DC6063E658E03365D923E5464061255
:100420005BE21263021262161256F218044400399B
:10043000A61A28A616259616321C1E48BE041E6251
:10044000C0055E76EE062DF0061E89BA051E958E55
:10045000041EABAE03291E1EB9B0031EB4980414CB
:1004600004BB00BFA016BD9412A686128C2A5E881B
:100470005E033EA878051EABE2031EB1E00316BE84
:10048000C636C59E3EB1E8043E9CEA042D4E041ECD
:100490007842041E5A3205163B841E28B404100408
:1004A00020001F0412208E1C062A0034003EB603D2
:1004B0003656943E6A88071E7A28031E8AA2061EB4
:1004C0009E3E042DA0061EA5C8031E9E260312965E
:1004D0004E1E8DBA043E87CC0629D01E92C8063E19
:1004E000976C061E93FE075E8ED4042DE6055E6FA4
:1004F0003A0736641E25244DAA041E65B2053E6DDA
:100500004A072D70073E78F60525A036710A1E842D
:1005100024035E9300042D06041E9D04041EACB843
:100520000416BF881ECB08041C04CF00D028031477
:1005300004CB00C4201EB2CC051E9E80071E8AEC90
:1005400008327B4A7E7498034D42071E5C5E061C8F
:100550000453005168062DF6073E6022032D4A031E
:100560001E57B20416440C2D38041E2238041E22D5
:10057000C4051E33BE041E4E58071264A0166C98A4
:100580001A709E45062D58063E9DEE072DF808323E
:10059000B68C1ECA2E031EBFBA041AA8AA1E9648FD
:1005A000045A949841B42D0E072D4E0612C42A16F3
:1005B000C6BA1EBA6C0512B2022D32031EAAEE078D
:1005C0001E99E8071A81B61E6794081E4F38061E4A
:1005D00037AA031E22B2041E19B6041A21201E33A4
:1005E0004C051E4242031E4BEA061E5846091E6A6F
:1005F000BC03167C1C3E8CD4051EA16E073EA534A0
:10060000081E9BC004457616889029163E8C260944
:100610001E908C0816919C1E9292092D0C0716872D
:10062000944D4C072DAC044DC6056D2C0325F21ED0
:1006300075A2044D900B367ABA2DC0042D2E053EBE
:100640007D860A3A879A3288022D88091294841E80
:10065000A554061EB6BA0436C30C1ECA38045EC4BE
:1006600028031EA1F0081E8C7E0A2D4E082102369A
:1006700079E425901E6082092DBC071E4E1E041EC3
:1006800053B4042DC0085E650C0A1E66280316527A
:100690000A1E364C071A27941E3130031E422403CB
:1006A0001E4DEE081E525206165E042D54063E895B
:1006B0000A042D10042D4C051EA04A052D20061EEF
:1006C000CA3A0532C8821EBADE064564369D1C2D24
:1006D00034041E9976061EA9D8031EB754032D7440
:1006E0000521063EB9800536B8983EAD2C031E9A0A
:1006F000E0051688003E6AE4071E39BC043E262643
:10070000031E1E26033E227C092DE40714043A0032
:1007100041981250BE1A63221E7A7C091E90AA06C6
:100720001EA140082DC8091EA226032DF4082D7411
:10073000034D60083E88BE041E8F26033E96680661
:100740001E9A4C061E9772095E91140A2DDC0B2529
:10075000741E6DE6052D0C0B1665EC297A2D3E0CEA
:1007600029D425B45E6E5E062D4E062DC2044D586A
:100770000C7E7D1C0D1E85AE061291E62D0E044DDD
:10078000C60816C0981EC4A80512BCDE1AA82612F8
:10079000916C4D660C4D2A0C1E7C5A061E6E460846
:1007A0002D94031E5E48062D46061A53FC1662F869
:1007B0003E766A0C1E78DA061663B01E514C061E91
:1007C0004740062D70091649901248101A50942D72
:1007D000B2093E77040A1E7CAA093E79E2061E8908
:1007E0003204769F6A12BC881EBEE2071EBB4A0610
:1007F0001EAD080B3E998C0A2DFC0A1E91AE0A1EF6
:100800009B0C082D1C081EA64A0C3EAF1C032D1E77
:10081000034DA40912B1021EB0AA091EA53C0B1E6D
:1008200091100B1A751E1256861E3DAA04163088AA
:100830001A2B20162C9014042E002F941004340030
:10084000381A1E4356062DE4061E6E44041E85AC5F
:100850000C3E96B20312A0661E9D06053E98880ABD
:100860001E8C26033E84A60D1E8A9C084DB20325CD
:100870008E2DB60B2D7A094D3C0A1E8BEA0A2520D7
:100880002DF0092DFA083E6E9A045E771A0C2D623F
:10089000043E7020031E6FDC0725A82D340B5E7B01
:1008A000AE0A2D400C3E78F0073E826A071697107C
:1008B0001EA6C4083EB998051EC532041EB41E0B00
:1008C0003AA3265E96360D2D1A0C2D380E1E7F1C6F
:1008D0000B1674941E61D60734044F004C661A65DB
:1008E00064255C4D96032D4E051E6268062DD604C8
:1008F000164F8C1242F81A3E901E4826041E5926A6
:10090000045E646C0D2DB60D4DC60525943E900019
:10091000031EAA52061EBBDA073EC224035A8042B7
:100920004D440E41C0727C144D8C0FBE80480F4D5B
:100930003A0E3A85D02DD80A2D8E0D128E063E8C99
:100940000E0621C23E852804410C2DB20E1E7B9856
:10095000072DBA0A2D4C0525442D5E0E4D6A0E2D2D
:100960008A074526253A6D2404255C2D720D7E717B
:10097000A80C3E7EA00C2D62062D50033E89E0049B
:100980002DDC0C1E92DA0A2D8A0E129E0225DC2D19
:10099000CC0B2D920621A02D960645DE4D28053E56
:1009A000A1B8061E98A60D1E8B0A0E3E75480B496F
:1009B000F61E536E041E32BC0B1E298E073A3F3EB4
:1009C0002D9E0E1E6168041E784E0C3E95160A3E42
:1009D00096AE0B2DE6063E95E2061E8E00085E7F63
:1009E0006A065E764E082D18103E84480C2D780C51
:1009F0001E87FC0F2DF80F6D6E0F9E821C103E821D
:100A0000880D4DE60C4D5C051E87240B3E979E0419
:100A10004D3C0D2DCE0E2D3A0D1E9EE008569160D8
:100A20001E894C055A7C1A5E5A340D1259A82D9A0B
:100A30000F4D320F418C2D6C052DA60C4D08092D44
:100A40006E072D70051A524A2D2A0D1255321E6D51
:100A5000B0041E87AE0D3E9A18085E94260D3E8E99
:100A6000540F29A85EAC220D3EA53C052D7C092D16
:100A700098091E9596091AA7C43EB884071ECE1C75
:100A80000D1ED014091EBA58041E95840B1E7A0C34
:100A9000092D180D1E5418051E2DE4091E11EA0912
:100AA0001E18C4061E27E6082D7A0A1E4AB20D5EDD
:100AB00076120D292E5E8EF80E4D0E0D2DF00E4D78
:100AC000E40F3E88320625383E8720042D7A0B2D10
:100AD0008C035E82A0103E7490034D920C3E69928E
:100AE0000C2D160B5E6240102DC8062DC40F2D5420
:100AF000084D4C0D490021D43EB2FA0C2DF80C2DB6
:100B00004A092DF60C1EB4B6101EA4D80D1284BCD2
:100B10001267A02D500B7E62360A3E679E105E6CF7
:100B200076052D5003210E2DEE09166782165750BB
:100B30004D78031E4476031E5D70041E7F8A092DC6
:100B400002062DE60C5E9E76041EA470061EB020E2
:100B5000075EBAE20C1EB3CE043EA4F6034DDC0CD5
:100B60002D6E041E9FAE051EB5760B1ECCF60B1E19
:100B7000C3DA091AA36E2D36061E88460B1E6ED8E0
:100B80000C5E440C071E223A0B1C0414000E460B8C
:100B90002DD40C1E2E660E1E58660E2D80042D328E
:100BA000094D2403297C2D840896963A3E83201211
:100BB0002DBA1125E05E99C60C2DE80C1E8D16117C
:100BC0002D5E0E4DF6111E70B20C2DAE0C6DC40CC8
:100BD000526E1021602D8E112D88033E82E80F2D5C
:100BE000100A1AA80A5EB7BA0C2D960A4D7C071E89
:100BF000C9DA041EB08C09168EB05E79B40C2D00D3
:100C0000122DB20C6DB40C3E5BF20F1E52B40F3EAF
:100C100058640E2DAC0C1E5DAC0C1E48380E3E32D6
:100C2000D6051E31C8051E4DEA071E6FD00F1E895E
:100C30004E113E957C0D252C2DDA062DA40C3EC4BC
:100C4000A40C5EC6800C2D7E121EAA06092DDC03A4
:100C5000213012A1242D4C0D16BCEC2D4C062D8CF0
:100C6000102DA0091E93D2052D6C091E5D5A051E7C
:100C70004B320518042E001DA81E0CC20F1E199021
:100C80000B2DF8091E49FE061E5D86122DD2072D7A
:100C900096034D42043E9C68121EA8C4115E9A3011
:100CA000106DFC042D440D7E96160E3E891A112DF2
:100CB000EE043E6D58097E65860C294C2D3A122DA6
:100CC0000C0E454C2D78052D70052D66113E897C46
:100CD0000C1EA77C0C2D301129AA1EBC080E1ECE9E
:100CE000780C1ED1E20A1EC2AE0F1EACE4091E959E
:100CF000E00A2DBE097E72800F21622D1C123E5D1E
:100D000044111E540E125E596E0C1E5FDA0A1E4EFE
:100D100018064D46091E264A0A1E3420061E508417
:100D2000032DAE074DCE093E862E081E9BD4033EF2
:100D3000B3640C5EB7620C1EC030081EB8F00D4DD7
:100D4000600C3E8B880C3EA8641336ADF41EBF5475
:100D5000081EC352081EB1D6127E9FAC121E74E24A
:100D60000C5E4FA0121E22540C1E1FFC031A26A656
:100D70001E3AE00C1E55BA0A2DDA131E7214111E0B
:100D800081E0101E99F0121EA74E0C2DDE0D5A9C0C
:100D90008A3E8890077E8864052D480C2DAA072D71
:100DA000B20A967B525264022DEE102DEC035E7057
:100DB000400C2D8A0F1E70DE0D3E72DC0F5E8A3CE9
:100DC0000C2D880B2D3A0C2DAE0E1AC4A22D380C0A
:100DD0003ECF5E0F1EBB5A081EA4CA0D3E8D340CBA
:100DE0004D5E113E7206033E6B96121E560A092D89
:100DF000520F165A342D5E042DCC0E2D2C0C1E389D
:100E0000100A1225DC1623541238DC1E587C134DB0
:100E100026041E750204252E5E9BFC031EA5B4103D
:100E20003EBC940A2DB2101EAE6E1221EA2D68103F
:100E30004D1E0C2DE40E3AB1CC1EC7340B3ABDC882
:100E40002DF0081EACF0081E9A3E151E7D0C0A1EE1
:100E50005E400F1E42EE081E277E0A1E1A3A0F162B
:100E600023521E3862111E46F4121E52C0143E67F1
:100E7000100C2D7C0A2DF60912A4021EA2FC125E93
:100E800097560A2D90075E88320F4D080C2D080BDF
:100E90003E8DBC0E5E79C0085E6CD8145E65720A29
:100EA0005E78FC1621202DBC1025503E7FE0134DAE
:100EB000F80B2D56075E8D02043EB32E102DF80B55
:100EC0001EC9D4081EBED4082D640A1E8F22142DFC
:100ED0004E163E792A091E74D20A1E65AA082DCC28
:100EE000081E4E820D2D76154DFA1529C01E5F582D
:100EF0000A1E40E40B2D7E071E310C0F2D361221E9
:100F0000261E58820A3E6FA6102D60082DE40B1E87
:100F100093E40B1EB07A061EC8FE0D1AC9821ABDD4
:100F2000B03EB1E00B3A9B2A2DDE0B1EA2220E3EF4
:100F3000B450116DDA0B3EB9C0103EAF5612129983
:100F40009A1E82CE0A1E5B2A121E363A0A5E22D4EE
:100F50000B2DB81310042F00357E3E43FE0E1E628B
:100F6000D00B1E7DF60E3E960E143EA8F40E2DA656
:100F7000093E92A4064DCA0B2DBC0A5A95622D5407
:100F80000A2DA2102D540A2D86102DC40B2DD0161B
:100F90002D400E6DC20B2DC0142D22125E6C9C13C1
:100FA0005E7968096D0C193A84B22D68043EAD7EF5
:100FB000141EC164032D7E113EB1A0062DC4056D23
:100FC00086091E7D020A2D16161E6402154DB00BF1
:100FD0001E56180E2DFE152DCE101E73400D2D869B
:100FE000131E49340E5E48A80B1E49CE0E2DA80BC9
:100FF0002D420A2DF4102DAA0A2D68141E91C61137
:101000001EAA80121EB856102D801325522D1007CF
:101010001E987E062D34152D9E0B1E9CB2142DA4F9
:10102000077EAA8E0B2D9A0B5AB0A81EA4C00E1EC6
:101030008B2A0D1E68960B1E45A80D1E322C0D3EE8
:101040002B6C121A2DA82D920B1A39AC1E4974085C
:101050001E633E184D1E0321523E9FB0094D7A0873
:101060005E8A10175E8B36175E9894122D240D2D14
:1010700024152D68091A76AA2D840B1E6C820B4D3F
:101080009E173E7796172DA00E2D8C174D82096D59
:101090007C0B41022D7A0B25542DA20E2DFE031E32
:1010A000C310115EC0C0112D080C4DF6082D76043A
:1010B000255C1E79F8033E65E2031E4DBC15365EC5
:1010C000502D4A103E72280A4D42091E53020D1E31
:1010D00042680B3E3FBA122D8E0F2DB40E4D1608EE
:1010E0002D24101E7EB2082D040E2D6E043EB91C58
:1010F000132DD4031EAE26053E9E66095E912E0674
:101100002DB20A2D02151EA2FE082D14153EA7FAB7
:101110000C1EB1FA0C1EB1140C3EA268161E7712FA
:10112000103E592E121A3F981E36DC0C1E31E60C6A
:1011300025561E3176041E41160C1E5ACE141E76FC
:10114000B8125E8CE2084DFA032D9C144DF60F2D5B
:10115000901161021E976A0921224D4E131E8FE2E3
:10116000173E7D52145E6FDC078DFE075E6BE01844
:101170005E7372162D12052D861745702D4A0C1EB2
:1011800085FE132D98125EB24C091EB2F8135EA9AB
:101190001A071E8EFA192D9C1325B61E79C20C2D26
:1011A000F2122D42053E617A15214A2D400D7E77BF
:1011B00016041E5B92111E4C480E3E4D18041E581C
:1011C000CC182D2E132DFC0E4DE01629B21A85A831
:1011D0001E9E4C0E3AB2A84D0A131EB08E142D540A
:1011E000182DD8185E952E06210A2DC6152DAC1582
:1011F0003E9E501936AD545EB01A081E871E031E5F
:10120000705E101E5B08121E4CCA0E1E412E0E3A56
:1012100031AE1E2EF8122DCE0F2DFC0349A82554F9
:101220004D5C141E94760C2DB4052DDA112D42114F
:1012300041E03E94DE195EA31E043E9EB0093E8648
:101240001C184DDC0C4D8C064DFA15455E7E72CE99
:101250000C29A04DCE0F4D24161E77AE065E89B622
:101260000F3EA762072D6C153AA0A225BA3E9B221D
:10127000074D26123E6AEC172D32094DFE064DB081
:10128000052D101C2DC2062DBA065E66DE1A3E54D0
:101290000E083E58CA0C1E5EC20621022DF6124DE3
:1012A0006C152D84071A98A81EAD2E055EB8FC108B
:1012B0005EAC980A2D080F455625502D3E122D0084
:1012C000172D7A092DA20F2D5C141EB678053EA8A5
:1012D000EC1B1E8C220F25561E6420102DE8151EB7
:1012E0003E961A1E328C0F3E2D02044DDC141E5702
:1012F000BC0E1E71D0132D4A172D1A1B4D20132D15
:10130000E01756965249AC5E97061B5EAA68095EC6
:1013100092281A3E7DB21A5E72DC072D181A5E7290
:10132000980A4D28142D3C0E2D88172D8A0D3E75D8
:10133000200C4D941A1A84382D62172DB6083EAB36
:10134000C6051EA372031EA172085E9B04102D2009
:10135000071E81E0101E6EF0183E5C481B49A84D28
:101360007A1C65A81E70321C2D7C1B1E5282133EF7
:101370004F6E051659562D80172DD41C49AA1E6C88
:1013800092121E80941325543EAE82064DB215452E
:10139000563E9D22069694565E9470182D421D2D41
:1013A00072164DF8102D2A043E9B3A0B1E764A0DFC
:1013B0002D620C4DC61DBE81C81E5E81B01E6DF82B
:1013C0001D7E7CB80F8DFE047E7A72132D4C0F7635
:1013D00071302D160D2DE0132DA21E2D821C2D2AED
:1013E000145E891E1B4D46032D301D2DC0035E8FDC
:1013F00024112D94173E8EB40852981E21202DB62C
:10140000052D1C115E752E092DBE0B3E4C14123E8F
:101410004CD0132D1A054D301E2D0E122D6A0A5E6A
:101420008968112D02095E8F2A104D4E142D481423
:10143000528F727687F09E71880C5E6D66114D102A
:10144000105E78B61C4D521F6D76133EA30A152D03
:10145000CE062D72091EC81A0C3EBF84142D261A02
:101460001E89FA1D2DC61E7E6EEC085E643C116D51
:10147000320B2DE0091E5C220F1E469C171E2E9C6F
:10148000171A28BE1E39DC091E59541C3E75A00FC0
:101490002D9A0A2DA20F3EA416181EB9401B1EB588
:1014A000080F1EBD8E171EB960042D2A0B2D181FA4
:1014B0003E9B641B2DFC1C3EB202062D64113EB304
:1014C0001A162DC40E1E89A81A1E69200F2DF008A9
:1014D0001E276C162D761752246A1E5670101E6930
:1014E0000E043E7626073E98200B2D341E3E9DB8F6
:1014F000174D361E2DB00B2D2E1E2DEC0445462DFE
:10150000AA1D2DC0134D6C0C8D1C0B4D180B4DB826
:101510000529002D160B1E79CC1A5E8DB4082D4EB0
:10152000173EA5240D1EC6760E12CE022D48173E7C
:10153000B9561B5E92E61C4D100B2DF81E2D1A0F8E
:101540001E58A21D4D3C172D6C1C21102D5E0C1E2B
:101550003580133E2334171E360C152D0C142D2008
:101560001C2D920A2D02142D541A1E9E02171EAC19
:1015700048192D4E1D1EC48C093EAAA4067E94D087
:101580000D3EA148171EC014138D020B1EAECE17C0
:101590001E9C980B1A7D5C3E5BAA183E2CD21B1E2B
:1015A0001D381A3E30A6091E49220A1E5B621D3EE6
:1015B00072200E3E94BC1A2D5C1C5E9CE81E5E8858
:1015C00022126DF80A4DF60A5E88B2192D8A125E53
:1015D0006BF40A1E67BC033E73021A2D7E152DA6FE
:1015E000122D9E092D76202DC6122DEE0A4D1A1EA3
:1015F000169A302DAC0B2D161E1EC9B00B1EC194B1
:101600000D1EAA96142DA61F7E7CDC161E6D4A04A4
:101610004D961E1E50921E1E5B5E202D22082D80B0
:10162000181A585C3E35DC0E1E32DC0E3E46D613D0
:1016300025F44DE40A4D46131E92E8061EAFBA1972
:101640003EC7DA0E295A3EB2AE082DBA192D5220E5
:101650004DAE096DDE0A7EBADC0A3EA740111E8837
:101660006C2116602E5E37DA0A1E1FA20C1E282E71
:101670000C1E3542181E45A2101E5BD0122D921E64
:101680002DCE0D3EA66A202D280C2DA0165E8B00B7
:101690001F2D9C164D36102D98164D30202DD00E36
:1016A0004DA81F3E63A81B3E75CE0A2DAC192DFC1C
:1016B000142D681E4D8A162DE0224D2A144DCA0A9B
:1016C0002D2A121EB106092DAE1A2D861A1EAF84C0
:1016D00007295A6DE2221E7C2E124DAE063E5BBAE1
:1016E0000E6D46177E7B0C192DC20A4D6A161249E3
:1016F000BE1E5AEA0C2D8E1A2DB21B2DBE0A1E8755
:1017000062163EA22C0B2D60162D5C163EB5EE0324
:101710002D961A2DCA204D7E212DB41A5EADAE0A2B
:101720002D50161EB00E103EAD5E0D1E8A081B1EFB
:10173000645C0D1E40F80B3E2F74102DB2061E2F58
:10174000901B1E37041B2DB20E2DBA1E3E83580D62
:101750002DF0194D3C142DA80E3E875C149E8AAEC8
:101760000A2D381E2D200C2D580921D82D46094D43
:10177000AA0A4D42224D0C082D4E1B4D74218D227C
:10178000164D880B1E8FBA0C5EA3A40A3EC3980E9A
:101790002D78134DA20A4D621B1E815E135E71A04F
:1017A0000A2DE2153E6700182DE4132DBA172D08F7
:1017B000161E54380D1E43761F2D04162D180E5E6E
:1017C000641E132D8E033E7AFA031298641EB064D1
:1017D0001E3ABF5A3AB0362D64084D7E072D881741
:1017E0004D940A2D920A2DF00B7EAE3E091E9DA44B
:1017F0001A1E7D92061E5BB0191E44000B1E392C6A
:101800000D4DE6071E2EC01C1E3A00131E52340D4D
:101810004DE00B4DD4133EA38623FE928A0A4D88D9
:101820000A2D8C151E9BE0071E885E187E77DA074E
:101830004D6E045E6F6C242DE4185E75820A4D08AF
:10184000222D6A1F3E74681916952E5EADBA202DA2
:101850007E0A1EA82E092D26152D7C0A2D7A1C1E07
:101860008528181E654C0A2D0E115E60D2076D7A10
:101870000A2DA4031E63E8181E50680E2D84033E33
:1018800055760A1E5C18115E638E241E703818127D
:1018900087643EA2D81A4D7C1D5EB4C60B7E98703C
:1018A0000A6DCC074D6E0A1EA3E6132DC4073EB188
:1018B000F61A1E940C0A1279681E6144101E4E6AB4
:1018C0000A1E406A0A3E30821F3E32BC0F2D18218C
:1018D0001E662E105E844A255E9758072D1A087ED4
:1018E00092640A2D261A2DE0244D620A4D4A1B2DC2
:1018F000A8108D600A2DBE0B7E72600A4DB6084D91
:101900001A0D4D5C0A3E7202192D58165E9F5A0A36
:101910002D8E082DBC1D2D7C082D821A2D160B5ED8
:1019200079AE0E4D40222D861B2D86062D9E125E11
:101930007AAE1B1E62B2133E56CE1E3E5760202D5D
:10194000520A2D540A2D1E223E694C203E8A1A0747
:101950002DFA081EB746122D4C225EA54C0A6D9832
:101960000B2D480B5E91421D5EA3F8212DA01B2D6F
:10197000420E1E8F3C0B3E7C460A2DE2241E435A2B
:101980001B2DDE194DEE0C1E35B6121E5128053AE0
:101990006EC65E8AF4174DA6045695F48D3E0A5E17
:1019A000A734172D68254D4C082D561E2D4A183E7C
:1019B000713A0A4D0A094DB4048D380A5E75380A29
:1019C0002D360A1E8658042D3E1B9EAC340A9EA05E
:1019D00052112D8E231E74120A5E5FC226252E9E82
:1019E00074D60B3E6FF6201E556A1EAD2C0A3E5E65
:1019F0004A232D3C262D7E133E83D20C6DCC052D23
:101A0000F6222DA0104D6410CD260A2D46262DBAA3
:101A10000D5EA7CC0C2D220A2D1A123E7E0E044D0F
:101A2000941B1E43200E3E33061B2DC4102D5C0656
:101A30001E526A173E6FC60C4DB8095A955E2108B2
:101A40005E9026032DC20C4DD41F3EA606254D6682
:101A5000226DC00C4D340A566F367E7284036D6859
:101A6000132D780F5E700E282D1E152D06283EAF03
:101A70008A032D54045E95E21C1E975C131E7F4260
:101A80000F29424D94225E6470072DC8055E7CB21A
:101A90000C6D022629606DB00C5E5EAE0C1667F808
:101AA0003E78720E2DAA103AB25E5EB5FE0D7E9B98
:101AB000AA0C2DE80E5E93A80C452E298A2D7E0BCC
:101AC0001EA9A60C1E9336152DF0191E68E2093EBC
:101AD00051A40C5E36BE041E2D68161E3C98183E9E
:101AE0005BE6092D70182DD6114DA20F29BC452E8D
:101AF00021122D041A3EA104152D48122D06236D26
:101B0000EC112DDA1A2D60097E7142174D40082D17
:101B1000A82949605E758E20295E21CA5E9ED40385
:101B20002DB41F5E98621129602DEA257E7CDC11A0
:101B3000252E4DC6092D16222D2A162D9E292D8CB7
:101B40000C2DAA0A1E59840C2D2C0F3E5DD60D3E7D
:101B500060140E2D321E1E6B56041E82880A5E9D76
:101B6000C6262DD2157EAE00228DDE0B7E8DE011B5
:101B70002DF2223EAC18071EAC6A042D901C16965E
:101B8000301A7CC82DF41D1E50F01D1E3B94171EEC
:101B90002B8A1F1A28602DB4231E507A092DD20DCE
:101BA0002D76144D40254DC4045E92CE262D2C0971
:101BB0002DE2032D760D5EA7E21C5E9490036D88E6
:101BC0002A4DEC215E7212072D06135E7EC60D2D86
:101BD0003E072D8A291E6E3E274DCE2821B8295258
:101BE0002DA2062D742A4DC41B3E8F3E064D2E1F7E
:101BF0002D14252D8E046DA0084DE4124DB81D2D19
:101C000062082DCC264DE0055E673C2849901E6891
:101C100030281E825E10452E2D500636B32E3EA271
:101C2000A0124D42284D860E2D581F2D46272D42BD
:101C3000282DD2192DDA282DD8282DF2212DE62A8B
:101C40001E77F8032D78132D54181E34A8112DFE7D
:101C50000E1E31A2292DA8112D7A131E6F7E0B3E68
:101C6000828A275E9414202D46143E8B92202DA844
:101C7000085EA3FC171EA76A145E9968143E87F4D9
:101C8000134DD4245E72942B4D401049102D9C129C
:101C90003E6CB42A5E6AEA052DB21329AA4DEE1EE7
:101CA00045F22D26252DCE092DE6162DEA0E4D38AE
:101CB0001E2D9C142D26281E73C42A2D442C4DE65F
:101CC0001E2D8C032D9C2BA95A5E603C103E625E3B
:101CD000292D54045E99EA052D90242D9C1F2DC4B6
:101CE000177E9B1E0E4D62167E9122111EAA321087
:101CF0005EB45E282D58142DAC271E6E52063E563B
:101D00003E1B1E39E0224D2E101E2F4C171E447C08
:101D1000192D7C152DFC23BE8BEA052D8E0A2D5C1A
:101D2000122D16074DCE1B252E1EA4522B2DF21D53
:101D30002D3C212D6C1D5E77BE2C41022DBC04294B
:101D40000E2D242D5E7DAA272DAA032DFE275E7B56
:101D500032172DA21B2DDE052D8E212D9421295EFB
:101D60002DC8092DCC11295C2D7C2B5E61E8068DD8
:101D70008A034DCC151E6A32042D6A1E6D422D6DEC
:101D8000FA2D4DD40E2D0A132D9E283E8928042DA0
:101D9000B60A2D50172D480B4DC0112D70233E68EB
:101DA00038102DA4293E85F6252D260F4D4C1F4DAC
