:020000040001F9
:10C00000E84600208DC4010095C4010097C40100DA
:10C0100099C401009BC401009DC401000000000000
:10C020000000000000000000000000009FC40100AC
:10C03000A1C4010000000000A3C40100A5C40100C8
:10C04000A7C40100A7C4010029D00100A7C40100B2
:10C05000A7C40100A7C401000DCB0100A7C40100C3
:10C06000A7C40100A7C40100A7C40100A7C4010020
:10C07000A7C40100A7C40100A7C40100A7C4010010
:10C08000A7C4010079CD0100A7C40100A7C4010025
:10C09000ADCD0100A7C40100B5CD0100A7C40100CA
:10C0A000A7C40100A7C40100A7C40100A7C40100E0
:10C0B00045CD0100A7C40100000000000000000001
:10C0C000A7C40100A7C40100A7C40100A7C40100C0
:10C0D000A7C40100A7C40100A7C40100000000001C
:10C0E0000000000000000000000000000000000050
:10C0F0000000000000000000000000000000000040
:10C10000000000000000000000000000000000002F
:10C11000000000000000000000000000000000001F
:10C40000DFF80CD000F050FB004800474DFA010067
:10C41000E8460020401E00BF00BF00BF00BF00BFB5
:10C4200000BF00BF00BF00BF00BF00BF00BF00BF14
:10C4300000BF00BF00BF00BF00BF00BF00BF00BF04
:10C4400000BF00BF00BF00BF00BF00BF00BF00BFF4
:10C4500000BF00BF00BF00BF00BF00BF00BF00BFE4
:10C4600000BF00BF00BF00BF00BF00BF00BF00BFD4
:10C4700000BF00BF00BF00BF00BF00BF00BF00BFC4
:10C4800000BF00BF00BFC5D170470000064880470D
:10C4900006480047FEE7FEE7FEE7FEE7FEE7FEE7A9
:10C4A000FEE7FEE7FEE7FEE7F5CD010001C401006F
:10C4B00040EA01039B0703D009E008C9121F08C026
:10C4C000042AFAD203E011F8013B00F8013B521EA6
:10C4D000F9D27047D2B201E000F8012B491EFBD21D
:10C4E00070470022F6E710B513460A46044619467F
:10C4F000FFF7F0FF204610BD2DE9FE4F804681EA90
:10C500000300C00F0C46009021F0004123F00045CD
:10C51000B8EB0200A94105D24046214690461C4690
:10C520000B46024623F00040104347D0270DC7F3C7
:10C530000A00C3F30A510290401A019040286BDAB6
:10C54000C3F3130040F4801B0098924620B10023EF
:10C55000D2EB030A63EB0B0B01985946C0F1400282
:10C56000504600F0E2F906460D4650465946019AFB
:10C5700000F0FAF910EB08006141002487EA11523B
:10C5800084EAE7731A4340D0009A62B3019A012A01
:10C590004FEA075215DC001B61EB02014FF000422D
:10C5A00002EA0752CDE90042001C41F580113246F3
:10C5B0002B4600F0FAF903B0BDE8F08F4046214663
:10C5C000F9E7001B61EB0201001C41F58013001824
:10C5D0005B412018A2F5001747EB030140EAD57034
:10C5E000B6196D4111E06D084FEA360645EAC0758F
:10C5F0004FEA0752001B61EB0201001C41F580115C
:10C6000049084FEA30000019514132462B4603B029
:10C61000BDE8F04F00F0BAB90098012240000023B5
:10C62000D0EB020263EBE073009821464FEAE0741E
:10C63000B8EB000061EB0401E9E783F000435BE73E
:10C6400081F0004158E72DE9FE4F81EA030404F030
:10C65000004421F0004100944FF0000B23F0004310
:10C6600050EA01045ED052EA03045BD0C3F30A54DB
:10C67000C1F30A552C44A4F2F3340194A0FB0254F4
:10C68000C1F3130141F48011C3F3130343F4801386
:10C6900001FB024400FB034E840A970A44EA8154DA
:10C6A00047EA8357A4FB076802958D0A05FB0785B7
:10C6B0004FEA932C04FB0C542705029D4FEA0658C1
:10C6C00047EA1637B5EB08056EEB070C870E920E9E
:10C6D00047EA811742EA8312A7FB0201B6EB0B017E
:10C6E00064EB00042B0D43EA0C335E1844EB1C5042
:10C6F000DA465146E7FB0201C5F313044FEA0B3358
:10C7000043EA14534FEA0432019C43EA0603A4F1BE
:10C710000C040294009CCDE900B400F046F903B08B
:10C72000BDE8F08F00200146F9E72DE9F04D81EAE0
:10C73000030404F0004B21F0004514464FF0000ABA
:10C7400023F0004150EA050220D054EA01021DD036
:10C75000C5F30A570246C5F31303C1F31300C1F32F
:10C760000A5640F4801543F48013A7EB0608101B0B
:10C77000D64608F2FD3873EB050002D308F1010834
:10C7800001E092185B41B8F1000F03DA0020014686
:10C79000BDE8F08D00204FF48011064684460EE07F
:10C7A000171B73EB050705D3121B63EB0503064349
:10C7B0004CEA010C49084FEA300092185B4150EAFC
:10C7C0000107EDD152EA030012D082EA040083EAA5
:10C7D0000501084305D0101BAB4106D201220023FE
:10C7E00006E000224FF0004302E06FF00102531018
:10C7F0001AEB06004CEB085110EB0A0041EB0B0161
:10C80000BDE8F04D00F0C2B80EB5C10F80EAE0708F
:10C810000844CA07002140F233438DE80E000A465F
:10C820000B4600F0C2F803B000BD0EB540F2334134
:10C8300002910021CDE900110A460B4600F0B5F83F
:10C8400003B000BDC1F30A5210B5C1F3130140F2A9
:10C85000FF3341F480119A4201DA002010BD40F20A
:10C8600033439A42A2F2334203DC524200F06CF8A6
:10C8700010BD904010BD00F0004230F000400AD0E2
:10C88000C10D01F56071C0F3160042EA0151C20802
:10C8900040071143704700200146704730B50B46F2
:10C8A000014600202022012409E021FA02F59D42E0
:10C8B00005D303FA02F5491B04FA02F52844151EB4
:10C8C000A2F10102F1DC30BD2DE9F05F0546002048
:10C8D00092469B4688460646814640241BE02846F1
:10C8E00041464746224600F02FF853465A46C01AA2
:10C8F000914110D311461846224600F016F82D1A21
:10C9000067EB01084F4622460120002100F00DF898
:10C9100017EB00094E41201EA4F10104DFDC48465C
:10C9200031462A464346BDE8F09F202A04DB203AE0
:10C9300000FA02F1002070479140C2F1200320FA72
:10C9400003F3194390407047202A04DB203A21FA70
:10C9500002F00021704721FA02F3D040C2F1200218
:10C960009140084319467047202A06DBCB17203A2E
:10C9700041FA02F043EAE07306E041FA02F3D040E4
:10C98000C2F12002914008431946704710B5141EA9
:10C9900073F1000408DA401C41F1000192185B4178
:10C9A0001A4301D120F0010010BD2DE9F04D92464F
:10C9B0009B4611B1B1FA81F202E0B0FA80F2203266
:10C9C0009046FFF7B2FF04460F4640EA0A0041EAEC
:10C9D0000B0153465A46084313D0114653EA01004F
:10C9E00019D0C8F140025046FFF7AEFF05460E468B
:10C9F000504659464246FFF798FF084305D00120AC
:10CA000004E020463946BDE8F08D0020054346EAA3
:10CA1000E0762C4337430A986305E40AA0EB08004C
:10CA20000022FD0A44EA47540A3002D5002001469C
:10CA3000E9E7010510196941DDE908450019694177
:10CA4000BDE8F04DA2E7C1F30A52C1F3130140F271
:10CA5000FF3341F480119A4202DA00200146704708
:10CA600040F233439A42A2F2334202DC5242FFF7D1
:10CA70006BBFFFF75ABF000030B5041E71F1000410
:10CA800004DB4FF00044404264EB0101141E73F1DB
:10CA9000000405DB1C464FF00043524263EB0403E5
:10CAA000994208BF904230BD064C074D06E0E06851
:10CAB00040F0010394E8070098471034AC42F6D3E5
:10CAC000FFF7A2FC80180200A018020070B5C1F3A5
:10CAD0000A5201F000450024C1F3130140F2FF3374
:10CAE00041F480119A4201DA002070BD40F23343D4
:10CAF0009A42A2F2334203DC5242FFF725FF00E0E4
:10CB000090402C43F1D0404270BD00002DE9F04F21
:10CB100087B00027BA4600F0D7F84FF4807006902F
:10CB20000125002412E0069803F0FEFC40B100BF8E
:10CB300060480068284018B1069803F0E7FC2F43CE
:10CB40006D000698001D80B20690641C082CEAD384
:10CB50004FF4BE7003F0E8FC48B14FF4BE7003F030
:10CB6000D5FC47F0004700BF534800688246F8B242
:10CB7000F8B1012500241AE005EA0700A8B100BFBA
:10CB80004E4850F82400C0F30420064600BF4B482E
:10CB900050F82400C0F301408046204602F010FA0D
:10CBA000814641463046C84700BF6D00641C082CD2
:10CBB000E2D307F00040002879D04FF0000B0020AE
:10CBC0000590401E049000BF4FF0000B002457E07A
:10CBD0003B48005D0390039820F0C006384800579A
:10CBE000401C00284BD00120B04004990840002888
:10CBF00045D003984FEA9019304602F0E9F9804693
:10CC000002F0DEF90290029810B9B9F1030F35D1A4
:10CC1000012000FA06F5B9F1030F02D10598284367
:10CC2000059000BF274850F82600C0F3014800BF18
:10CC300005EA0A0010B1B8F1020F05D005EA0A00B2
:10CC4000D8B9B8F1030F18D1B9F1030F0FD1B8F16A
:10CC5000020F01D1032000E002200190304601992B
:10CC600003F020FC0BF1010000F0FF0B00BF029865
:10CC700018B149463046029A904700BF00BF641C75
:10CC8000042CA5D3BBF1000F0DD000BF0A490968E1
:10CC90000846504503D14FF0000B03E007E0824601
:10CCA0000599049100BFBBF1000F8DD100BF07B003
:10CCB000BDE8F08F0463004010050050106500408F
:10CCC000B42600200007005010B5172003F004FC24
:10CCD00010BD000000F01F0201219140024A4309EB
:10CCE00042F823107047000080E200E000F01F02CD
:10CCF000012191404209920002F1E022C2F80011A4
:10CD00007047000000F01F0201219140024A4309D0
:10CD100042F823107047000000E200E010B5002840
:10CD200007DA4A07140E054A00F00F031B1FD454FC
:10CD300003E04A07130E024A135410BD18ED00E039
:10CD400000E400E010B50B480068012805D1002080
:10CD500008490860162003F0BFFB0648001D006864
:10CD6000012806D100210348001D0160162003F0B0
:10CD7000B3FB10BD10C1014010B500200949086087
:10CD800000210948C0F84411C0F84811C0F84C11FE
:10CD900000200549C1F8000102493C39086004F04F
:10CDA000FBF810BD401101400010014010B504F027
:10CDB0000BF810BD70B50A48006868B108480068F3
:10CDC0008047044600BF254625B100BF284601F034
:10CDD000D5FB00BF00BF01E002F012FC70BD0000F7
:10CDE000F020002001480249086070470090D003FD
:10CDF0000821002010B502F043FA10B17D487E49A9
:10CE0000486702F055FA28B17C480068C0F3423008
:10CE10007B49086002F076FA28B17A48006820F071
:10CE200080707849086002F085FA48B100207649A0
:10CE300008604FF08041C1F810017149091F086076
:10CE400002F0A2FA18B103206D496431086002F0C3
:10CE5000B3FA68B105206D49086001206B4978314B
:10CE6000086000206949083108603F20091F0860F8
:10CE700002F0BAFA002855D0654800686549086094
:10CE80006348001D0068091D08606148083000689B
:10CE9000091D08605E480C300068091D08605C4888
:10CEA00010300068091D0860594814300068091DD9
:10CEB00008605748183000685649203108605448C7
:10CEC0001C300068091D0860514820300068091DA9
:10CED00008604F4824300068091D08604C4828301D
:10CEE0000068091D08604A482C300068091D086068
:10CEF0004748303000684749403108604448343082
:10CF00000068091D0860424838300068091D086043
:10CF10003F483C300068091D08603D4840300068CB
:10CF2000091D086037487438006840F470003549BE
:10CF30007439086000BF00BF00BFBFF34F8F00BF50
:10CF400000BF00BF00BF00BF00BFBFF36F8F00BFB7
:10CF500000BF00BF3048006800F0004030B92E48E4
:10CF6000001D006800F00040002840D001202B493F
:10CF7000086000BF2A4800680028FBD01520264919
:10CF8000086000BF264800680028FBD01521224811
:10CF9000001D016000BF224800680028FBD000206F
:10CFA0001E49086000BF1E4800680028FBD000BF73
:10CFB00000BF00BF00BF00BFBFF34F8F00BF00BF67
:10CFC00000BF1048F038006800F4E06015490843DD
:10CFD000001D0C49F039086000BF00BF00BFBFF35F
:10CFE0004F8F00BF00BF00BF00BF00BFFDE7FFF7CE
:10CFF000F9FE10BD0DF0ADBA00C0074044020010AC
:10D000003C050040FCED00E00C01004010560040E3
:10D010000404001020C500400012001004E5014087
:10D0200000E401400000FA0510B50448007F10B18B
:10D0300004F09CF901E004F0E9F810BD442600205A
:10D040000FB4054B10B503A9044A029800F060FD27
:10D0500010BC5DF814FB00000FF50100D420002087
:10D0600003B401984100009850EAC12018BF042081
:10D070004A0D18BF40F0010040F2FF72B2EB515F61
:10D0800008BF40F00200012808BF052002B0704729
:10D0900010B52F499FED2C1B2DED020B84B0059888
:10D0A00020F000408842DCBF00209DED040B32DD03
:10D0B0002849884209D1049840B94FF0010000F096
:10D0C0006FFC00F03DFC06B010BD05DB9DED040BD0
:10D0D00000F02AFC06B010BD68469DED040B00F080
:10D0E0003BF810F0030011D0012818D09DED021B71
:10D0F0009DED000B02281AD000F04AFA51EC100BFB
:10D1000081F0004106B041EC100B10BD9DED021BFB
:10D110009DED000B012000F06FFB06B010BD9DEDF2
:10D12000021B9DED000B00F033FA06B010BD01208C
:10D1300000F062FB51EC100B81F0004106B041ECB5
:10D14000100B10BD000000000000000000000000F7
:10D15000FB21E93F0000F07F2DE9F14F04462DED62
:10D16000020B2DED088B8AB09FEDE70B80ED020BD3
:10D17000139EE74826F0004585420ADC9DED120B20
:10D18000002084ED000B0AB0BDEC088B03B0BDE8B5
:10D19000F08FE0489FEDE0AB9FEDE1BBA84247DD9B
:10D1A000E14F9FEDE39B9FEDE48B9DED120B53EC64
:10D1B0001A2B51EC100B002E1CDDFFF73EFA41EC50
:10D1C000100BBD4208D053EC1B2B51EC100BFFF79A
:10D1D00034FAC4E900010BE053EC192B51EC100BAD
:10D1E000FFF72BFA53EC182BFFF727FAC4E90001DD
:10D1F0000120C8E7FFF780F941EC100BBD4208D0D1
:10D2000053EC1B2B51EC100BFFF776F9C4E900012E
:10D210000BE053EC192B51EC100BFFF76DF953ECAD
:10D22000182BFFF769F9C4E900014FF0FF30AAE7B6
:10D23000C348A84279DB9DED120B51EC100B02F0B4
:10D2400017F941EC180B9FEDC00B53EC102BFFF7B7
:10D25000FAF99FEDBF1B53EC112BFFF74DF9FFF7C8
:10D2600035FC0746FFF7D0FA41EC190B53EC1A2BAB
:10D27000FFF7E9F953EC182BFFF7E2F941EC180B33
:10D2800053EC1B2B51EC190BFFF7DDF9DFF8C8A2AB
:10D2900041EC100B4FEA15580125FA4453EC102BC2
:10D2A00051EC180BFFF7C9F9032DC4E900013DD07B
:10D2B000C1F30A5005EB4511A8EB0000113981427A
:10D2C00034DA0AEB051BB0EE48AA9BED000BF0EE3A
:10D2D00068AA53EC102B51EC190BFFF7B4F941EC91
:10D2E0001B0B51EC1A0B53EC1B2BFFF7A6F941EC6F
:10D2F000180B51EC1A0B53EC182BFFF79EF953EC5B
:10D300001B2BFFF79AF99BED020B41EC1A0B53EC28
:10D31000102B51EC190BFFF796F953EC1A2BFFF772
:10D320008CF941EC100B6D1CB8E70EE0002EA8BF85
:10D330003846BFF628AF94ED000B51EC100B81F08E
:10D340000041C4E9000178421DE7C6F3130040F430
:10D35000801EC6F30A50A0F2F530471100F01F05F9
:10D36000C5F12000DDF848B0089000200690079035
:10D370000520EC467949002D07EB0002794408BFEF
:10D3800051F8221009D051F8223001EB8201AB4054
:10D390004A68089922FA01F11943A1FB0E26A1FB64
:10D3A0000B131A449A4234BF0123002303EB0608EF
:10D3B0000CEB8003D3E901A60E448E4234BF012159
:10D3C000002192448A4411B1924502D903E092456A
:10D3D00001D2012100E00021C3E901A641444CF83B
:10D3E0002010011EA0F10100C4DC029800F10050E1
:10D3F000850F0298DDE903678000DDF81480FFF7F0
:10D4000003FA41EC1A0B3046FFF70FFA9FED541B5D
:10D4100053EC112BFFF717F941EC1B0B3846FFF7C4
:10D4200004FA9FED511B53EC112BFFF70CF941EC63
:10D43000180B4046FFF7F9F99FED4D1B53EC112BEC
:10D44000FFF701F941EC190B51EC180B53EC192BB8
:10D45000FFF752F853EC1B2BFFF74EF853EC1A2B47
:10D46000FFF74AF8CDE90801002008909DED080B70
:10D4700053EC1A2B51EC100BFFF7DFF853EC1B2B7E
:10D48000FFF7DBF853EC182BFFF7D7F853EC192B09
:10D49000FFF7D6F89FED381B53EC112BFFF7D3F8AD
:10D4A0009FED370B41EC180B53EC102B9DED080B47
:10D4B00051EC100BFFF7C7F853EC182BFFF71CF8D3
:10D4C0009FED310B41EC180B53EC102B9DED080B2D
:10D4D00051EC100BFFF7B7F853EC182BFFF70CF8D3
:10D4E00041EC100B139810F0004F06D06D4251EC38
:10D4F000100B81F0004141EC100B284684ED000B2D
:10D5000041E60000000000000000000000000000F4
:10D51000FB21E93F7CD9024000004054FB21F93F48
:10D520003163621A61B4D03DFB21F93F0000000075
:10D530000000601A61B4D03D7370032E8A19A33BBA
:10D54000FB2139410000000083C8C96D305FE43F12
:10D55000000000000000E03FF244000040440000F2
:10D56000000000000000103E000000000000103C21
:10D57000000000000000103A182D4454FB21F93D32
:10D580003326A611460B113C00000054FB21F93D47
:10D5900010B52DED040B2DED088B82B0B0EE419A45
:10D5A000F0EE619A0B9820F000449FED4BABB4F184
:10D5B000795F11DA9DED0A0B51EC100BFFF786FA3B
:10D5C000002801BFB0EE4A0AF0EE6A0A02B0BDECD4
:10D5D000088B04BF04B010BD9DED0A0B53EC102B5B
:10D5E00051EC100BFFF72FF841EC180B3C480621CB
:10D5F000B0EE480AF0EE680A784400F081F853EC87
:10D60000182B51EC100BFFF71EF89DED0A0B41ECA7
:10D610001B0B53EC192B51EC100BFFF714F841ECDA
:10D62000190B53EC1B2B51EC180BFFF70CF853ECB8
:10D63000192BFFF702F89FED2C0B41EC190B53EC63
:10D64000102B51EC180BFEF7FEFF41EC100B284895
:10D65000844210DA53EC192B51EC100BFEF7EDFF5E
:10D6600053EC1A2BFEF7ECFF41EC100B02B0BDECB3
:10D67000088B04B010BD1F48A042BCBF9FED1E1B0D
:10D680008DED001B06DBA4F500100190002000903A
:10D690009DED001B51EC100B53EC112BFEF7CDFF51
:10D6A0009DED000B41EC180B53EC102B51EC1A0BB9
:10D6B000FEF7C3FF41EC1A0B53EC192B51EC180B7E
:10D6C000FEF7BBFF53EC1A2BFEF7BAFF41EC100B31
:10D6D000CCE7000000000000000000000000F03F68
:10D6E0006441000000000000000000000000E03F76
:10D6F0003333D33F0000E93F000000000000D23F79
:10D7000070B504462DED028B4D1E00EBC500B0EE4A
:10D71000408AF0EE608A90ED000B35F0060017D0DD
:10D7200053EC182B51EC100BFEF78DFF41EC100B56
:10D730006D1E04EBC50090ED001B51EC100B53EC7B
:10D74000112BFEF7D9FE41EC100B35F00600E7D1A6
:10D75000022D36D0042D1CD0062D1CBFBDEC028B33
:10D7600070BD53EC182B51EC100BFEF76CFF94EDD1
:10D770000A1B53EC112BFEF7BFFE53EC182BFEF7E0
:10D7800062FF94ED081B53EC112BFEF7B5FE41EC44
:10D79000100B53EC182B51EC100BFEF754FF94EDCB
:10D7A000061B53EC112BFEF7A7FE53EC182BFEF7CC
:10D7B0004AFF94ED040B53EC102BFEF79DFE41EC59
:10D7C000100B53EC182B51EC100BFEF73CFF94EDB3
:10D7D000021B53EC112BFEF78FFE53EC182BFEF7B8
:10D7E00032FF94ED001B53EC112BFEF785FEBDECD0
:10D7F000028B41EC100B70BD31B504462DED040BCE
:10D800002DED0A8BB0EE41BAF0EE61BA0B989DEDAA
:10D810000A0B20F00040B0F1795F0DDA51EC100BEB
:10D82000FFF71EFC042808BF00F09AF89DED0A0BD4
:10D83000BDEC0A8B05B030BD53EC102B51EC100B36
:10D84000FEF701FF41EC180B9DED0A0B53EC182B72
:10D8500051EC100BFEF7F7FE41EC190B2C48B0EE23
:10D86000480AF0EE680A05217844FFF749FF9FED6A
:10D870002ACBB0EE40AAF0EE60AA9CB353EC1C2B6E
:10D8800051EC190BFEF7DFFE41EC1C0B53EC1A2B8D
:10D8900051EC190BFEF7D7FE9FED210B41EC190B54
:10D8A00053EC102B51EC1B0BFEF7CDFE53EC192B58
:10D8B000FEF7C3FE53EC182BFEF7C5FE53EC1B2BF3
:10D8C000FEF7BBFE53EC1C2BFEF7B7FE9DED0A1BCB
:10D8D00053EC112BFEF7B4FEBDEC0A8B05B041EC06
:10D8E000100B30BDFFE753EC1A2B51EC180BFEF771
:10D8F000AAFE53EC1C2BFEF7FFFD53EC192BFEF791
:10D90000A2FE9DED0A1B53EC112BFEF7F5FDE3E79C
:10D91000EC3F000000000000495555555555C5BF66
:10D92000000000000000E03F10B553EC102B51EC5C
:10D93000100BFEF7E1FD41EC100B10BD00000000E4
:10D940009FED050B10B553EC102B51EC100BFEF7AF
:10D95000ECFE41EC100B10BD0000000000000000C8
:10D960009FED050B10B553EC102B51EC100BFEF78F
:10D970006AFE41EC100B10BD00000000000000101A
:10D9800002E008C8121F08C1002AFAD17047704788
:10D99000002001E001C1121F002AFBD170470000E6
:10D9A00001490860704700000C2100202DE9FF5F4D
:10D9B000DDE90220010DDDF838B0024318D044F64D
:10D9C0001050A1F2FF3141430D140F98012820D0CF
:10D9D000A5EB0B00401C5FEA000A4FF00004474E25
:10D9E000DFF81C91A046504616D5CAF1000728E082
:10D9F0000F98012443A2012808D0002100980F9B12
:10DA0000C0E90021C0E90243BDE8FF9F6FEA0B01B6
:10DA1000F4E7CBF10000DEE7074612E0F80707D095
:10DA20002246334640464946FEF70DFE804689466B
:10DA30002246334610461946FEF705FE04460E46BA
:10DA40007F10002FEAD1DDE90201BAF1000F424652
:10DA50004B4602DAFEF7F7FD01E0FEF766FE0446EC
:10DA60000E460022284BFFF707F803D84FF0FF308F
:10DA7000014607E00022254B20463146FEF73CFDDB
:10DA8000FEF7E1FF102409E0002C0ADB0A22002344
:10DA9000FEF71AFF019B30321A55641E50EA01024C
:10DAA000F2D1641C019AC4F1110314440F9A012AA3
:10DAB00003D0012208430DD10AE0084304D000201E
:10DAC0004FF0110B0F9080E7A3EB0B056D1E0DE0DF
:10DAD0005B4504DD4FF0000205F1010504E003DAC7
:10DAE0004FF00002A5F10105002AECD000980F9933
:10DAF000C0E90231C0E9004586E70000000024408B
:10DB00000000F03F300000000000F0430000E03F64
:10DB10002DE9FF4F95B09B468946064600250FE24A
:10DB2000252877D100242746F84A0121059400E0F2
:10DB3000044316F8013F203B01FA03F01042F7D1ED
:10DB400030782A2811D06FF02F033078A0F13002FE
:10DB5000092A16D8059A44F0020402EB820203EB6C
:10DB600042021044761C0590EFE759F8042B059209
:10DB7000002A03DA504244F40054059044F00204B1
:10DB8000761C30782E2816D116F8010F44F00404C4
:10DB90002A280DD06FF02F023078A0F13003092B26
:10DBA00009D807EB870302EB4303C718761CF3E79A
:10DBB00059F8047B761C30786C280FD006DC4C2892
:10DBC00017D068280DD06A2814D104E0742810D02A
:10DBD0007A280FD10DE044F400140AE044F48014D4
:10DBE00001E044F440147278824202D104F58014BA
:10DBF000761C761C307866280BD013DC582877D03A
:10DC000009DC002875D04528F6D04628F4D04728EE
:10DC10001AD19DE118E0632835D0642879D06528B1
:10DC200012D195E1702873D008DC6728F1D06928FB
:10DC30006FD06E280DD06F2806D1B5E073282CD098
:10DC4000752875D0782874D05A46179990476D1C5E
:10DC500075E1C4F30250022809D003280DD0D9F889
:10DC6000001004280DD00D6009F1040967E1D9F80E
:10DC70000010EA17C1E90052F6E7D9F800100D804C
:10DC8000F2E70D70F0E719F8041B8DF80010002082
:10DC90008DF80100EA46012003E059F804AB4FF08B
:10DCA000FF3061074FF0000102D40DE008F10101DF
:10DCB0008846B9420FDA8045F8DB1AF808100029C7
:10DCC000F4D108E008F1010188468142FADB1AF834
:10DCD00008100029F6D105985B46A0EB08072146FD
:10DCE0003846179A00F094FA284400EB080507E03C
:10DCF0004DE029E10DE01AF8010B5A4617999047BB
:10DD0000B8F10108F7D25B4621463846179A13E16D
:10DD100042E00A220092C4F302524FF0000A022AA3
:10DD200008D059F804CB032A4FEAEC710AD00DE071
:10DD300029E02AE009F1070121F00702F2E802C117
:10DD4000914609E00FFA8CFC4FEAEC71042A03D1EA
:10DD50004FFA8CFC4FEAEC71002907DA0A460021E1
:10DD6000DCF1000C61EB02012D2202E0220504D55A
:10DD70002B228DF80420012203E0E20701D02022AB
:10DD8000F7E7904659E00A2102E010220DE0102149
:10DD90004FF0000A00910BE010224FF0000A44F00F
:10DDA00004040827009203E008224FF0000A0092C2
:10DDB000C4F30252022A05D059F804CB0021032AE9
:10DDC00008D009E009F1070121F00702F2E802C1D9
:10DDD000914605E01FFA8CFC042A01D10CF0FF0CDF
:10DDE0004FF00008220728D5702806D0009B83F04A
:10DDF000100353EA0A0305D00EE040228DF80420F8
:10DE0000012208E05CEA010206D030228DF80420ED
:10DE10008DF8050002229046009B83F0080353EA28
:10DE20000A030AD15CEA010201D1620705D530225A
:10DE30008DF804204FF001087F1E582804D034A02C
:10DE400003900EA802900DE036A0F9E75346604615
:10DE5000009AFEF739FD84460398825C0298401EC2
:10DE6000029002705CEA0100F0D1029806A9081A3B
:10DE700000F1200A600702D524F4803400E0012775
:10DE8000574502DDA7EB0A0000E0002000EB0A0185
:10DE9000009005984144401A0590E00306D45B4683
:10DEA0002146179A059800F0B3F90544002706E0CB
:10DEB00001A85A46C05D179990476D1C7F1C4745C5
:10DEC000F6DBE0030CD55B462146179A059800F077
:10DED0009FF9054404E030205A46179990476D1C7D
:10DEE0000099481E00900029F5DC08E0029802998C
:10DEF0005A460078491C0291179990476D1CBAF157
:10DF00000001AAF1010AF1DC65E100000928010025
:10DF1000303132333435363738396162636465669F
:10DF20000000000030313233343536373839414261
:10DF3000434445460000000000F058F90544761CB3
:10DF4000307800287FF4ECAD19B02846BDE8F08F9A
:10DF5000620700D4062709F1070222F0070CFCE84B
:10DF60000223E14603F000485FEA080C02D00FF2FA
:10DF7000702C0DE05FEA045C02D50FF2682C07E01C
:10DF80005FEAC47C02D00FF2602C01E0AFF2700CAB
:10DF90004FF0FF3823F00043CDF850C065280CD077
:10DFA00006DC452809D046281DD047283DD13DE054
:10DFB000662818D067287ED138E00021112F01DBB8
:10DFC000112000E0781CCDE9000106A90EA8FFF79A
:10DFD000EDFCDDE90F010E9A03910021009207F19B
:10DFE000010A04914DE04FF000400097CDE9011087
:10DFF00006A90EA8FFF7DAFCDDE90F0203920E9BDB
:10E0000011990022DDF80CA00093049211B9791C3B
:10E0100000EB010AB7EB0A0004D4C0F1FF3007F1AE
:10E02000010A0490AAEB0700019044E0012F00DAF6
:10E0300001270021112F01DD112000E03846CDE934
:10E04000000106A90EA8FFF7B1FCDDE90F010E9A49
:10E050000391002104910092BA4621070CD4039940
:10E06000514500DA8A46BAF1010F05DD009AAAF19E
:10E070000101515C302908D0B84202DA10F1040FD6
:10E0800006DA0121CDE9011015E0AAF10101E9E765
:10E09000002805DC049901440491AAEB000102E088
:10E0A000411C514500DD8A460499401A401C0190EC
:10E0B0004FF000400290200704D40198504501DB46
:10E0C000CDF8048000208DF84F0002980DF14F0725
:10E0D000B0F1004F25D02B200E9002984FF002088F
:10E0E00000280CDA404202902D200E9007E00A2111
:10E0F0000298FEF7D3FB3031029007F8011DB8F10A
:10E100000001A8F10108F2DC02980028EFD1791E85
:10E110000E980870307800F0200040F0450007F8B5
:10E12000020D12A8C01B00F107081498007800B176
:10E13000012000EB0A01019801EBE07105984144D0
:10E14000401A401E0590E00306D45B462146179A0C
:10E15000059800F05DF805441498007818B15A4607
:10E16000179990476D1CE00324D55B462146179A0A
:10E17000059800F04DF805441CE00498002807DBE2
:10E18000DDE90301884203DD0098405C179901E056
:10E19000179930205A469047049805F10105401C14
:10E1A00004900198401E019004D12E205A461799E0
:10E1B00090476D1CBAF10001AAF1010ADDDC05E00F
:10E1C00017F8010B5A46179990476D1CB8F10001DA
:10E1D000A8F10108F4DC5B462146179A0598ABE6E6
:10E1E0002D0000002B000000200000002DE9F04170
:10E1F000044600251E461746880404D405E0394627
:10E200002020B0476D1C641EF9D52846BDE8F0817A
:10E210002DE9F041044600251E469046C80301D56D
:10E22000302700E02027880404D505E04146384621
:10E23000B0476D1C641EF9D52846BDE8F0812DE974
:10E24000FC41044688461646002537880020308069
:10E25000606B68B1616B08783B463246414602F01C
:10E26000A3FC054600BF15B12846BDE8FC8100BFF0
:10E27000206B58B13B4632464146206B02F0F4FE1B
:10E28000054600BF0DB12846EFE700BF94F82E0009
:10E2900060B194F82E003B463246414601F014FA34
:10E2A000054600BF0DB12846DFE700BF94F82D00FA
:10E2B00050B13A463146404600F00BFC054600BFDF
:10E2C0000DB12846D1E700BFA07850B13A4631469B
:10E2D000404600F0D5FA054600BF0DB12846C4E718
:10E2E00000BFE07860B1E17848B23B463246414633
:10E2F00001F0F2F8054600BF0DB12846B5E700BFB2
:10E30000606868B1616891F900003B463246414659
:10E3100002F000FF054600BF0DB12846A5E700BF8B
:10E32000208900280EDD43460622022104F1080060
:10E33000CDE9006703F044F9054600BF0DB128465A
:10E3400093E700BF208A00280EDD43460722032101
:10E3500004F11000CDE9006703F032F9054600BF73
:10E360000DB1284681E700BF208B00280EDD434613
:10E370001522142104F11800CDE9006703F020F9FB
:10E38000054600BF0DB128466FE700BF206A58B1AF
:10E390003B4632464146206A00F095FE054600BFE6
:10E3A0000DB1284661E700BF606A58B13B4632466E
:10E3B0004146606A01F08AFC054600BF0DB128465F
:10E3C00053E700BF94F82C0000280BDD3B46324693
:10E3D0004146204602F003FC054600BF0DB1284629
:10E3E00043E700BF207858B13B46324641462046BD
:10E3F00001F0BCFC054600BF0DB1284635E700BF63
:10E40000284632E70146C87800F0040008B9072022
:10E4100070470020FCE7000030B59DB0164800684A
:10E4200000901648807C8DF8020038210FA8FEF776
:10E4300058F802208DF83C0001208DF83E0006209F
:10E440008DF83F00382101A8FEF74BF80120ADF808
:10E450001400CDF818D001A90FA800F099FA0446CD
:10E4600000BF254625B100BF284600F087F800BF51
:10E4700000BF1DB030BD0000EC16020010210020CE
:10E4800030B587B0182101A8FEF72BF800208DF8D1
:10E49000040002908DF80C004020ADF8140000201C
:10E4A000ADF8160001A873DF044600BF254625B16C
:10E4B00000BF284600F062F800BF00BF00BF4FF465
:10E4C0000030044908600020091F086000BF07B041
:10E4D00030BD00000C05005010B5002406E00849CE
:10E4E000096811F8340001F0D3FC641C0548007879
:10E4F0008442F4D30448006800F026F910BD0000FF
:10E50000DC200020E02000205417020010B5002479
:10E5100007E00749096811F83400012101F0E2FC25
:10E52000641C044800788442F3D3002010BD00002E
:10E53000DC200020E020002000BF00BF00BF00BFA3
:10E5400000BFBFF34F8F00BF00BF00BF0948006886
:10E5500000F4E06008490843001D0649086000BF58
:10E5600000BF00BFBFF34F8F00BF00BF00BF00BFA1
:10E5700000BFFDE70CED00E00000FA053EB50446E3
:10E58000002000900190029002946A46002144F21B
:10E590000100FFF7D1FF3EBD70B504460D46204691
:10E5A00000F083FF28B12946204600F06DFF0020CF
:10E5B00070BD0520FCE7034609B90E20704712B173
:10E5C000501E104008B10920F8E71960501E9880CD
:10E5D00000209860D86000BFF0E770B504460D4693
:10E5E000204600F062FFA188884205D829462046CF
:10E5F00000F069FF002070BD0420FCE710B5034661
:10E600000C4600BF0B48006808B9082010BD00BFC9
:10E610000AB90720FAE70BB90720F7E71868007C6A
:10E6200008B10820F2E71968002008744C744A61A8
:10E6300000BFEBE7B42000202DE9F04180460E46F4
:10E6400014461F46204600F0030109B9012100E0ED
:10E65000002111B90720BDE8F08124B900201D492F
:10E6600008600720F7E702F0B1F91B4807600320B4
:10E670001A49087017480460183400250DE0154940
:10E68000096801EBC500002101704170867044608B
:10E6900006EB460104EBC1046D1C032DEFDB0020EB
:10E6A0000F4908600F4908700F4908701420FEF7E1
:10E6B00011FB06211420FEF731FB1420FEF716FB98
:10E6C000404602F059F902F051F90849086000206B
:10E6D000C1E70000B4200020CC200020B0200020A2
:10E6E000B8200020C8200020C9200020BC20002025
:10E6F0002DE9F84304460D461746264600BF11484B
:10E70000006810B90820BDE8F88300BF0CB90820E4
:10E71000F9E7052D01D20720F5E7706908B908204F
:10E72000F1E7707C012801D1284600E000208046F6
:10E7300002F000FF814643462A463146009702F028
:10E74000DDFBE0E7B420002070B50446254600BF9D
:10E750000948006808B9082070BD00BF0CB168699D
:10E7600008B90820F8E70020287402F0E3FE064606
:10E77000294602F0F1FBEFE7B42000202DE9F0413B
:10E7800088B004460D4617469846294807601DB9CB
:10E79000072008B0BDE8F081A88882B22548296822
:10E7A000FFF709FF064600BF0EB13046F1E700BF94
:10E7B000A88982B22048A968FFF7FDFE064600BF7F
:10E7C0000EB13046E5E700BF20221C496846FDF740
:10E7D0006FFEA0680690207908B1012000E00020BB
:10E7E0008DF814008DF81C80607908B10E2000E0CF
:10E7F00000208DF81500E0780290A0780390207832
:10E800000190607800900E49684601F0C7FB06460B
:10E8100000BF0EB13046BCE700BF9DF81D0008B92F
:10E8200001F086FC0121074801F02AFCB1E7000055
:10E83000A8200020242600203426002014170200DF
:10E840004D110200AD20002070B5044621460A4853
:10E85000FFF7C3FE054665B901F0D0FD48B9074989
:10E860000548FFF799FE20B90121044801F024FD75
:10E870000546284670BD000034260020AC2000204C
:10E88000F8B505460C4617462088001DB84201D948
:10E890000C20F8BD684679DF064600BF0EB1304651
:10E8A000F7E700BF0320218868542088401C20809F
:10E8B0001920218868542088401C20802088411914
:10E8C000BDF8000002F0E8FD218808442080002007
:10E8D000DFE7000010B50446206801F0F5FD206870
:10E8E00001F0D3FD0021606801F0B6FD2548007FEE
:10E8F00018B3A0692449086000BF607D217D40EA0B
:10E900000102224BC3F86C2500BF1846D4E900125F
:10E9100001F06CFE207D012832D10021A06801F0B9
:10E920009BFDE06801F0D0FDE06801F0AEFD174806
:10E93000D4E9022101F046FE22E0A06912490860F4
:10E9400000BF607D217D40EA0102104BC3F86C25B9
:10E9500000BF1846D4E9001201F01FFE207D0128F7
:10E960000ED10021A06801F077FDE06801F0ACFD58
:10E97000E06801F08AFD0548D4E9022101F0F6FDC6
:10E9800010BD000044260020242500400020004047
:10E990002DE9F04192B080460D461F201190109055
:10E9A000B8F1000F17D04046FFF72CFD044600BF1A
:10E9B0001CB1204612B0BDE8F08100BF11AA08A921
:10E9C0004046FFF73CFC044600BF0CB12046F1E78F
:10E9D00000BF08AE02E0002600201190ADB128462D
:10E9E00002F0CAF9044600BF0CB12046E2E700BFBE
:10E9F00010AA69462846FFF722FC044600BF0CB166
:10EA00002046D7E700BF6F4602E0002700201090A5
:10EA1000BDF84000C3B2BDF84400C1B23A4630462A
:10EA200072DFC7E770B505461C2229461248FDF77C
:10EA30003FFD002011490870286850B1104829682E
:10EA40000A680260496841607ADF04463CB12046AA
:10EA500070BD0B487BDF04460CB12046F8E74FF64B
:10EA6000FF7008490880002007490870074A002104
:10EA70000748FFF7C3FDEBE7E8250020A6200020AC
:10EA8000922000209C2000209A200020A514020043
:10EA90000017020010B504462088102806D011285F
:10EAA00008D012280ED0502810D107E0204601F0DF
:10EAB0003BFE0CE0204601F057FE08E0204601F046
:10EAC00077FE04E0204601F023FE00E000BF00BF17
:10EAD00010BD2DE9FC4105460C461746208809303B
:10EAE000B84202D90C20BDE8FC81684671DF0646B9
:10EAF00000BF0EB13046F6E700BF082021886854F9
:10EB00002088401C20801B20218868542088401CBD
:10EB1000208020882844DDF801100160BDF8051030
:10EB200081802088801D20809DF8000018B9002079
:10EB30002188685402E00120218868542088401C04
:10EB400020800020CFE7000010B50446204601F0E9
:10EB500055FD2046FFF79EFF2146024800F046F88B
:10EB600010BD00001021002070B586B004460E468E
:10EB70004FF6FF70A0823068A0611B4B0FCB01AD38
:10EB80000FC504F1120101A863DF054600BF15B1EE
:10EB9000284606B070BD00BFA07C8DF8160041F27B
:10EBA0002350ADF81400224605A90120A0DF054638
:10EBB00000BF0DB12846ECE700BF3146204600F00B
:10EBC000C3F8054600BF0DB12846E2E700BF314655
:10EBD000204600F0AEFD054600BF0DB12846D8E73F
:10EBE00000BF0020D5E700000417020070B50546FD
:10EBF0000C462088102804D0112807D050280FD1A7
:10EC000009E02146284601F0ABFD0AE021462846EE
:10EC100001F0CAFD05E02146284601F0F5FD00E0BF
:10EC200000BF00BF70BD000010B500BF002408E0A9
:10EC30000120A04000F4F01010B1204601F019FCB2
:10EC4000641C202CF4D300BF00BF4FF4F010034924
:10EC500008600020091D086000BF10BD08050050B5
:10EC600070B588B034480068079000BF0023482280
:10EC7000324907A802F04EF8054600BF2E4626B1DD
:10EC800000BF3046FFF77AFC00BF00BF00BF02AAFA
:10EC90000121002002F01EF8044600BF254625B1E0
:10ECA00000BF2846FFF76AFC00BF00BF00BF244E2C
:10ECB000304601F003FF044600BF254625B100BFE2
:10ECC0002846FFF75BFC00BF00BF00BF02A801F0B1
:10ECD000F3FF044600BF254625B100BF2846FFF7D5
:10ECE0004DFC00BF00BF684671DF044600BF2546EB
:10ECF00025B100BF2846FFF741FC00BF00BF6946B1
:10ED0000002070DF044600BF254625B100BF28461D
:10ED1000FFF734FC00BF00BF0A4801F0C1FF044602
:10ED200000BF254625B100BF2846FFF727FC00BFDE
:10ED300000BF08B070BD0000F0160200A024002043
:10ED4000E81F002049EB010030B58FB004460D46A6
:10ED50000020079000BF9DF81C0020F00F00401C11
:10ED60008DF81C009DF81C0020F0F00010308DF88C
:10ED70001C0000BF00BF9DF81D0020F00F00401CCC
:10ED80008DF81D009DF81D0020F0F00010308DF86A
:10ED90001D0000BF9DF81E0020F00600801C8DF8AD
:10EDA0001E001C2108A8FDF79CFB9DF8200020F008
:10EDB0000200801C8DF820009DF8200020F010003B
:10EDC00010308DF82000002009900B900C9007A8BF
:10EDD0000D9000200E90A07C8DF8060041F224508A
:10EDE000ADF804000020009000BF9DF8000020F066
:10EDF0000F00401C8DF800009DF8000020F0F0008E
:10EE000010308DF8000000BF00BF9DF8010020F019
:10EE10000F008DF801009DF8010020F0F0008DF842
:10EE2000010000BF9DF8020020F00600801C8DF854
:10EE300002009DF8020020F008008DF802009DF805
:10EE4000020020F010008DF802009DF8020020F072
:10EE500001008DF80200142102A8FDF742FB01A871
:10EE60000290CDF80CD00120ADF810000020ADF8D4
:10EE700012000120ADF8140000200690208804F153
:10EE80000A0302AA08A9A2DF0FB030BD7CB50E2488
:10EE90000025032600202B4602460146CDE9000648
:10EEA000204601F0B5FA00BF07200E2102220E4BCA
:10EEB00053F820300D4C23400B4C44F820302346AF
:10EEC00053F820304FF4F85404EA0124350405EADD
:10EED00002452C432343044C44F8203000BF01205A
:10EEE000034908607CBD000010650040FFE0FCFFA6
:10EEF0000463004010B500F003F800F02DF810BDD9
:10EF00001C20012181404209920002F1E022C2F856
:10EF1000001100BF30200D4908600C200C4908602A
:10EF200000200B495C390860094954390860091D03
:10EF30000860481506495839086004200549C1F899
:10EF400000020120024960390860704704C3014093
:10EF500060C5014000C001400120164908600C2036
:10EF600014495431086000201249083908601149D9
:10EF7000091D0860091D08604FF4FA500D49091F6A
:10EF8000086047210B4818300160002109482030F3
:10EF900001600948074914310860002105481C3008
:10EFA0000160002005490860012002490C39086011
:10EFB000704700000C1502402C2100200012024076
:10EFC0000146024850F821007047000064260020E6
:10EFD0000146014840567047942600202DE9F0472D
:10EFE00082461F480068002836D01D480068056822
:10EFF00001F0BCFC07461B4804682146384601F076
:10F00000C2FEC61C1848007808B901F0C1FCAE4227
:10F0100001D2284600E03046044424F07F442046D4
:10F0200001F09EFC01F0A2FC80463946404601F00A
:10F03000AAFE00F103093946204601F0A4FE8145ED
:10F0400009D901F093FC814601F08AFC2F20FDF7DD
:10F05000E1F901F0EDFF01E001F0B8FCBDE8F08757
:10F06000B8200020BC200020D020002001460888C5
:10F07000062808DB0888B0F5486F06DD08884FF6DB
:10F08000FF72904201D0072070474888062808DBAD
:10F090004888B0F5486F06DD48884FF6FF72904209
:10F0A00001D00720F0E708884FF6FF72904208D0A1
:10F0B0004888904205D008884A88904201DD0720A0
:10F0C000E2E70020E0E72DE9F04106460D46144650
:10F0D00098462088801D404502D90C20BDE8F0816B
:10F0E0003046FFF7C3FF074600BF0FB13846F5E7CC
:10F0F00000BF0520218868542088401C20801220F1
:10F10000218868542088401C20802288511930882A
:10F1100002F0C2F9218808442080228851197088A1
:10F1200002F0BAF92188084420800020D6E710B503
:10F13000044600BF2046FFF721FA00BF10BD0000C3
:10F1400030B587B01C216846FDF7CBF90020009050
:10F150004FF4202001908010029003208DF80C00C5
:10F160000020ADF80E008DF8100009480590094800
:10F1700006906846FFF756FC044600BF254625B1B9
:10F1800000BF2846FFF7FAF900BF00BF07B030BD47
:10F19000E50602002FF1010038B51B4800F082FAA5
:10F1A00020BB1A48007848B119484069E8B10020EE
:10F1B0000090174841696846884716E0154800786E
:10F1C00010B91348456801E01148856800222946B6
:10F1D00011480068FFF78CFA044634B10C48806986
:10F1E00018B10B4881692046884709E00848406902
:10F1F00030B101200090064841696846884700BF49
:10F2000000200249087038BD9E200020A620002062
:10F21000E82500209A20002000170200014614482B
:10F220000078144A127890421DD011480078401C92
:10F230000F4A107010460078022801D1002010708B
:10F240000D480B4A127850F8220008600B4A0868F3
:10F2500012681044094A10601046006820F07F4090
:10F260001060012070470020086000BFFAE700002E
:10F27000C8200020C9200020C0200020BC20002081
:10F280000A48007806280ED10848001D007800F0D2
:10F290000F0040B905480830007800F0F000302831
:10F2A00001D1012070470020FCE70000E00F00F0D2
:10F2B00013480078062820D11148001D007800F07E
:10F2C0000F00D0B90E480830007800F0F000302868
:10F2D00001D1012070470A480830007800F0F000A2
:10F2E000402801D10120F5E705480830007800F0FA
:10F2F000F000502801D10120ECE70020EAE70000EF
:10F30000E00F00F00A48007806280ED10848001DDA
:10F31000007800F00F0040B905480830007800F090
:10F32000F000302801D1012070470020FCE70000E8
:10F33000E00F00F013480078062820D11148001D86
:10F34000007800F00F00D0B90E480830007800F0C7
:10F35000F000302801D1012070470A4808300078B9
:10F3600000F0F000402801D10120F5E70548083001
:10F37000007800F0F000502801D10120ECE70020D7
:10F38000EAE70000E00F00F00A48007806280ED1F6
:10F390000848001D007800F00F0040B9054808300B
:10F3A000007800F0F000302801D1012070470020E3
:10F3B000FCE70000E00F00F00A48007806280ED1B4
:10F3C0000848001D007800F00F0040B905480830DB
:10F3D000007800F0F000302801D1012070470020B3
:10F3E000FCE70000E00F00F00A48007806280ED184
:10F3F0000848001D007800F00F0040B905480830AB
:10F40000007800F0F000502801D101207047002062
:10F41000FCE70000E00F00F0F0B5034600241FE019
:10F42000124E306806689E4203D90668F61A0660D6
:10F430001AE006689B1B06683444002606600B4EE3
:10F4400035680A4FC6693E60C66846B10E1926F097
:10F450007F464660C66886601668C661156000BF54
:10F46000024800680028DBD100BFF0BDB8200020B2
:10F4700082B0CDE9000121F0004001909DED000B2C
:10F4800002B051EC100B704770B504460D462A4689
:10F490000021204600F00EF8A068401CA06070BD5E
:10F4A00001468A68C868801A704701468A68C86839
:10F4B000801A704710B583680B4484882340046821
:10F4C000E35C137010BDC26883881A4003689954C6
:10F4D000C268521CC260704730B504461088C01C18
:10F4E000984201D90C2030BD02201588485510885B
:10F4F000401C10800120158848551088401C108041
:10F5000015884C551088401C10800020EBE770B522
:10F5100004460D46E0B2FFF797F9204670BD0000A3
:10F520003EB500BF9DF8000020F00F00401C009089
:10F530009DF8000020F0F0001030009000BF102275
:10F5400014A168467CDF044600BF254625B100BFF4
:10F550002846FFF713F800BF00BF0020019002907B
:10F560005020ADF80400A020ADF806000020ADF852
:10F5700008004FF4C870ADF80A0001A87ADF04460D
:10F5800000BF254625B100BF2846FEF7F7FF00BFA4
:10F5900000BF3EBD4D794465766B69744E6F7459FA
:10F5A0006F7572730000000030B587B0104A07CA4B
:10F5B00004AB07C300BF0F480090012001900E4824
:10F5C00002904FF48070039006230C4A694604A809
:10F5D000FFF7D4F8044600BF00BF254625B100BFA1
:10F5E0002846FEF7CBFF00BF00BF07B030BD0000CC
:10F5F000F416020090200020E82400204B110200A5
:10F60000F8B52348007800B9F8BD2248006808B969
:10F61000012000E0002005461F48006808B90120CD
:10F6200000E00020064600BF8DB9684652DF044660
:10F63000052C01D1012509E024B100BF2046FEF7C9
:10F640009DFF03E0134900980968884700BFBEB9D1
:10F6500012480088009069461148006861DF04463E
:10F66000052C01D101260AE024B100BF2046FEF797
:10F6700085FF04E00A48006807490968884700BF19
:10F680000DB106B100E0CFE700BF00BFBCE700004E
:10F69000F42000200421002000210020FC20002074
:10F6A000F820002001464888064A1288904206DB6E
:10F6B0004888044A5288904201DC012070470020AB
:10F6C000FCE700009220002030B504461088C01CE2
:10F6D000984201D90C2030BD022015884855108869
:10F6E000401C10801C20158848551088401C108034
:10F6F000012C06D0022C08D0032C0AD0042C10D1E7
:10F700000BE00020158848550DE00120158848556C
:10F7100009E002201588485505E003201588485562
:10F7200001E00720D7E700BF1088401C10800020B0
:10F73000D1E730B58FB004460D461C2108A8FCF770
:10F74000D0FE9DF8200020F00200801C8DF82000E3
:10F750009DF8200020F0080008308DF820000020DF
:10F7600009900B900C900D900E90A07C8DF80A00E3
:10F7700041F22550ADF808000020019000BF9DF82F
:10F78000040020F00F00401C8DF804009DF80400D8
:10F7900020F0F00010308DF8040000BF00BF9DF88D
:10F7A000050020F00F00401C8DF805009DF80500B5
:10F7B00020F0F00010308DF8050000BF9DF8060025
:10F7C00020F00600801C8DF806009DF8060020F051
:10F7D00008008DF806009DF8060020F010008DF856
:10F7E00006009DF8060020F001008DF806001421A7
:10F7F00003A8FCF776FE02A8039001A8049001205C
:10F80000ADF814000020ADF816000120ADF8180086
:10F81000002007902088A31C03AA08A9A2DF0FB02C
:10F8200030BD000070B505460C46214619A0FDF715
:10F8300007FC0B2C2AD2DFE804F029060A0E121668
:10F840001A1E22292600162000F046FE1FE017206F
:10F8500000F042FE1BE0182000F03EFE17E01920E9
:10F8600000F03AFE13E0204601F034F80FE02046A5
:10F8700001F030F80BE0204601F02CF807E02046BC
:10F8800001F028F803E000F0EDFF00E000BF00BF4A
:10F8900070BD00000D0A52656365697665643A20A3
:10F8A00025640D0A000000002DE9F0412148D0F840
:10F8B0000080214806782FE02048006800EBC6044D
:10F8C000257825E005EB4501606800EBC107681C61
:10F8D000C5B2A078A84200D100253878022802D00D
:10F8E000032812D103E0786801F0D2FA0EE007E0B5
:10F8F00010490868002101740E4AC169116000BFF7
:10F900000C4800680028F3D100E000BF00BF00BF32
:10F910006078A842D6D100BF3000A6F10101CEB276
:10F92000CAD104480068404502D00120BDE8F081FA
:10F930000020FBE7B8200020B0200020B4200020E9
:10F940002DE9F04706463B48D0F800903A48077842
:10F9500061E03A48006800EBC70555E016B134464F
:10F96000E66923E02A7802EB4202696801EBC200F3
:10F970002978491C29702978AA78914201D100215F
:10F98000297044680178012901D1217C01B13BE053
:10F9900081686160C168A1600169E1604169A1613C
:10F9A0002749097809B10021616000BF25496068D5
:10F9B0000968401A20F07F402349884208D2214933
:10F9C0006068096801F0DFF9A1680844206010E070
:10F9D0001C486168006801F0D6F98046A06840457F
:10F9E00004D9A068A0EB0800206001E0002020609E
:10F9F00000BF00206060A060012020740020E06152
:10FA0000204601F011FA00BF002EA7D128786978AE
:10FA10008842A3D100BF3800A7F10101CFB298D12D
:10FA200004480068484502D00120BDE8F087002066
:10FA3000FBE70000B8200020B0200020B420002008
:10FA4000D1200020BC200020FFFF7F00FFF7ACFD8D
:10FA5000FFF7EAF8FFF71AFA01F0F0FAFFF700F9FA
:10FA6000FFF75EFD01F006F9FEF7D6FCFFF768FB35
:10FA7000FEF706FD00F066F900F069FFFFF73AFABD
:10FA800000BF00F057FFFCE72DE9F0412DED108B92
:10FA900086B007464FF224489FED840A10EE105AB4
:10FAA0009FED830A10EE106A0024F6E04046FCF752
:10FAB000BCFE41EC1D0B7F480088FCF7B6FECDE98B
:10FAC00002012046FCF7A0FE41EC1F0B9FED7A0BD4
:10FAD00053EC102BFCF7B7FDCDE900019DED020BB7
:10FAE00053EC102B9DED000B51EC100BFCF7ABFD14
:10FAF00041EC1E0B53EC1D2BFCF717FE41EC1C0BCD
:10FB0000B0EE4C0AF0EE6C0AFDF7C2FA8DED040B74
:10FB10002846FCF7B0FE41EC1B0B9DED040B53ECAB
:10FB2000102BFCF790FD41EC190B3046FCF7A3FEBF
:10FB300041EC1A0B53EC192BFCF7DEFC41EC180BD3
:10FB4000FCF780FE5E4921F81400002F53D1404697
:10FB5000FCF76BFE41EC1E0B56480088FCF765FE77
:10FB6000CDE904012046FCF74FFE9FED530B53EC0B
:10FB7000102BCDE900019DED000B51EC100BFCF7B3
:10FB800062FDCDE902019DED040B53EC102B9DEDC0
:10FB9000020B51EC100BFCF756FD41EC1F0B53EC24
:10FBA0001E2BFCF7C2FD41EC1D0BB0EE4D0AF0EE32
:10FBB0006D0AFDF76DFAB0EE40BAF0EE60BA284675
:10FBC000FCF759FE41EC1C0B53EC1B2BFCF73BFDE7
:10FBD00041EC190B3046FCF74EFE41EC1A0B53EC8E
:10FBE000192BFCF789FC41EC180BFCF72BFE35496F
:10FBF00021F8140050E04046FCF717FECDE904015F
:10FC00002C480088FCF711FECDE902012046FCF7E4
:10FC1000FBFD9FED290B53EC102BCDE900019DED71
:10FC2000000B51EC100BFCF70EFD41EC1F0B9DED92
:10FC3000020B53EC102BFCF706FD41EC1E0B9DED67
:10FC4000040B53EC102BFCF770FD41EC1D0BB0EED8
:10FC50004D0AF0EE6D0AFDF71BFAB0EE40BAF0EE79
:10FC600060BA2846FCF707FE41EC1C0B53EC1B2B3B
:10FC7000FCF7E9FC41EC190B3046FCF7FCFD41ECCC
:10FC80001A0B53EC192BFCF737FC41EC180BFCF763
:10FC9000D9FD0D4921F81400641C472CFFF606AF6E
:10FCA00006B0BDEC108BBDE8F08100000000704391
:10FCB00000007A438C2000201F85EB51B81E1940AC
:10FCC0002C210020BA210020482200202DE9F041FB
:10FCD00005460E4614469846A888871C2088801C36
:10FCE0003844404502D90C20BDE8F081FE2F01D9EF
:10FCF0000C20F9E7781C218870542088401C208053
:10FD0000FF20218870542088401C2080228891196F
:10FD1000288801F0C1FB218808442080A888002899
:10FD20000DDDA86808B90720DEE7AA88238898199E
:10FD3000A968FCF7BDFB2088A98808442080002022
:10FD4000D2E7000010B5162000F093FB172000F05A
:10FD500090FB182000F08DFB192000F08AFB1F207B
:10FD60000149086000BF10BD0C0500502DE9F84F97
:10FD700005460F46144698462878012804D168782D
:10FD800010B90720BDE8F88F2088801C404508D8AE
:10FD90002878012807D12088801C697808444045CC
:10FDA00001D90C20EEE72088A8EB0000801E86B267
:10FDB00000962188891CC81969467DDF814600BFED
:10FDC000B9F1000F01D04846DCE700BF28780228CF
:10FDD00006D1BDF80000B04202DC4FF0090A0BE08A
:10FDE0004FF0080A2878012805D16878B04202DC73
:10FDF0006878009000E00096BDF80000FE2801D968
:10FE00000C20BFE7BDF80000401C218878542088F2
:10FE1000401C2080208807F800A02088401C2080FB
:10FE20002088BDF80010084420800020AAE70000C8
:10FE300070B50B4601461A46002907DA5407260E0C
:10FE4000104C01F00F052D1F665503E05407250ED9
:10FE50000D4C655400BF00BF00F01F02012191400E
:10FE60000A4A440942F8241000BF00BF00F01F02F4
:10FE7000012191404209920002F1E022C2F80011F2
:10FE800000BF70BD18ED00E000E400E080E200E09B
:10FE900070B50546284600F0C9FC20B1002128466F
:10FEA00000F000FB18E0284600F0CCFCA0B128468A
:10FEB000FFF78EF804462046084951F8201021F03B
:10FEC0000102064941F8202000BF012101FA04F097
:10FED0000349086000BF00BF70BD0000106500400E
:10FEE000086300402DE9F04705460E46284600F01D
:10FEF0009DFCF8B12846FFF76BF8083824490F5CE1
:10FF0000BC11032C0BD100BF224800680121A9407D
:10FF1000084008B1032000E00220804605E0012CE3
:10FF200001D1022000E0032080464146284600F02F
:10FF3000B9FA2AE0284600F085FC30B32846FFF7DE
:10FF400047F80446A00000F5807087B220461249A9
:10FF500051F8201041F001020F4941F8202000BF64
:10FF6000384600F0D3FA7EB12846FFF731F88146D3
:10FF7000FFF726F88046B8F1000F04D0012101FAFE
:10FF800004F000F0DDFA00BF00BFBDE8F08700001C
:10FF9000B4260020100500501065004070B50446DE
:10FFA0000D463148C07E08B1082070BD04B92F4C01
:10FFB000607F2D4908772046FEF78CFC2A48456073
:10FFC0002949206908600846406880B3267F0846B2
:10FFD000007FC0B14FF48871254800F0F0FA4FF46B
:10FFE0009071234800F0EBFA4FF49271204800F032
:10FFF000E6FA4FF4A2711E4800F0E1FA1D491C48D0
:020000040002F8
:1000000000F0E9FA0DE04FF48E71194800F0ABFAF8
:100010004FF4A271164800F0A6FA1749144800F0F0
:10002000ADFA31460220FFF703FF00BF00BF00BF5B
:100030000D48007F28B100BF08201049086000BFAC
:1000400005E000BF04200D49086000BF00BF00BFED
:1000500000200549C875087688750120C8760020FB
:10006000887600BFA1E70000442600203417020074
:100070000020004010030200800002000025004024
:1000800070B504460D462848007F30B1200C0004AE
:10009000B0F1005F01D0102070BD002622484068FA
:1000A00068B12148007F28B14FF404711F4800F067
:1000B0008FFA04E04FF401711C4800F05CFA1A4812
:1000C000C07DB0B11848007E90B11748406868B153
:1000D0001548007F28B14FF40471144800F07BFAF2
:1000E00004E04FF40171114800F048FA1120D3E701
:1000F00001263EB90C48C575C46000200A494876FF
:10010000087602E00848046105760748007F28B1B8
:1001100032462946204600F075F8BDE732462946AA
:10012000204600F015F8B7E74426002000200040E4
:1001300010B50648007F38B90448807E20B900F029
:10014000ABFC01200149887610BD00004426002048
:100150002DE9F0478046894616462848807E10B92A
:100160000EB900F099FC2548406800283FD14FF4B3
:10017000A271234800F0F7F900BF00BF4FF492715D
:100180001F4800F0E9F905464FF484711C4800F05F
:10019000E3F907464FF4A271194800F0DDF904466F
:1001A00017B90CB9002DE9D005B904B107E000F08A
:1001B00039FC1248C07D1149497E8842DDDC00BF10
:1001C00000200E49C87515B10320BDE8F0870CB1B9
:1001D0000F20FAE70948807E20B10021084800F08E
:1001E000D9F903E00421064800F0D4F904E04FF403
:1001F0000171034800F0C2F90020E6E74426002020
:10020000002000402DE9F04704460D4690464FF48B
:100210008871264800F0D3F94FF4A271234800F00A
:10022000CEF92248C0F834454FF4A7610D5000BF05
:10023000B8F1000F03D1002100F0D5F908E020202B
:100240001B4909680143194AC2F8001200BF00BFE8
:100250001848406818BB00BF4FF48871134800F07D
:10026000A7F981464FF4A271104800F0A1F90746A2
:100270004FF492710D4800F09BF90646B9F1000F5A
:1002800002D10FB9002EE7D000200A49C87516B177
:100290000320BDE8F0870FB10F20FAE704E04FF428
:1002A0000471024800F097F90020F2E700200040B6
:1002B000002200404426002070B504460D460F4839
:1002C000007F30B1200C0004B0F1005F01D010209D
:1002D00070BD00F093F808B11120F9E70748857563
:1002E00084600020054988820846007F10B100F034
:1002F0004DF8EDE700F004F8EAE70000442600209E
:1003000010B500244FF48E711E4800F02CF908211E
:100310001C4800F03FF900F0CBFE1B48406878BB5A
:1003200012E000BF4FF48E71164800F015F920B9A5
:100330001548808AB0F5807FF4D11348808AB0F5E3
:10034000807F01D000F0B4FE0F48808A0E49897D7D
:100350008842E6DB0C48808AB0F5807F01D10F240B
:100360000BE000BF4FF48E71064800F0F5F800284E
:10037000F8D00C21034800F00DF9002002498875DF
:10038000204610BD002000404426002070B5002605
:100390004FF49071174800F012F94FF4AC71154802
:1003A00000F00DF91348144B99689A7DC0F8441574
:1003B0004FF4A9631A5000BF082100F014F90E4849
:1003C0004068A8B900BF4FF490710A4800F0F0F8F7
:1003D00005464FF4AC71074800F0EAF804460DB941
:1003E000002CF0D004B10F2600200349887500BF0F
:1003F000304670BD00200040442600200348807D28
:1004000008B1012070470020FCE7000044260020CE
:10041000F0B5DDE9054541EA420646EA830646EACB
:10042000042646EA0547024E46F82070F0BD00005B
:1004300000070050F0B5DDE9054541EA420646EA0D
:10044000830646EA042646EA0547024E46F820702F
:10045000F0BD0000000700507CB505460C460020AA
:10046000009023460246014601902846FFF7E2FF2E
:100470007CBD1CB5044600200090034601221146B5
:1004800001902046FFF7C4FF1CBD1CB504460020A8
:10049000009003460122114601902046FFF7CAFF53
:1004A0001CBD0000074A52F8202022F44033054AC0
:1004B00042F8203052F8202042EA0143014A42F833
:1004C000203070470007005001218140014A11602F
:1004D000704700000805005010B50146012202FADD
:1004E00001F0064B1A6820EA0203044C241D236025
:1004F00002EA0003241D236000BF10BD0405005064
:1005000001460148084470470060004038B5044681
:100510002046FFF7F5FF002101602046FFF7F0FFBE
:100520000068009000BF38BD10B504462046FFF7B4
:10053000E7FF0068012800D110BD0020FCE70000A3
:100540000149086070470000046300400146D1F88B
:100550008004C1F8800470470246505808B1012059
:1005600070470020FCE7002242507047C0F8081591
:10057000C0F810257047C0F808137047C0F804137E
:1005800070470246D2F80403084008B101207047C2
:100590000020FCE7012242507047C0F80C15C0F85B
:1005A000142570470146D1F88004C1F880047047D3
:1005B0000246505808B1012070470020FCE7002295
:1005C00042507047C0F808154FF4A2631A507047A4
:1005D000C0F808137047C0F804137047014640F292
:1005E0003C504058704701224250704740F20C5333
:1005F000195040F214531A507047000070B5054668
:100600002888102806D0112825D0132840D0522839
:1006100060D14EE000BF4FF48020304908600020D8
:10062000091F086000BF00BF4FF4003008600020C1
:10063000091D086000BFA88829490880FDF766FFEA
:10064000044600BF264626B100BF3046FDF796FFA0
:1006500000BF00BF3FE000BF4FF480201F49091FCB
:1006600008600020091D086000BF4FF6FF701C499C
:100670000880FDF731FF044600BF264626B100BFC3
:100680003046FDF77BFF00BF00BFFDF7F9FE22E01B
:1006900000231A468521124800887FDF044600BFE8
:1006A000264626B100BF3046FDF768FF00BF00BFF9
:1006B00011E000231A46194609480088A9DF0446BC
:1006C00000BF264626B100BF3046FDF757FF00BFEA
:1006D00000BF00E000BF00BF70BD00000C0500506F
:1006E0008020002070B50546287868B93B2107486E
:1006F000008876DF044600BF264626B100BF30469C
:10070000FDF73CFF00BF00BF70BD0000802000204F
:1007100010B504460349A2680A60E0684860FEF725
:100720003BFD10BD9E20002010B50446A08808495E
:1007300008800849A2690A60E0694860002006490B
:1007400008700648C08908B9FEF726FD10BD0000F4
:100750009C2000209E2000209A200020E8250020D8
:100760008A8882827047000070B505464FF6FF7098
:100770000949088000200949087009480068FDF708
:10078000E3FF044634B10748806918B10548816920
:100790002046884770BD00009C2000209A20002041
:1007A00000170200E82500204FF6FF728282704792
:1007B00070B50546AC1D20881149C98988421DD1F4
:1007C000608902281AD100BF00BF217B627B41EA09
:1007D0000221084600F0010111B1FEF7DDFC0DE039
:1007E00008480068FDF7B0FF064636B10448806946
:1007F00018B1034881693046884700BF70BD0000CA
:10080000E82500200017020070B504460E46B51D0D
:1008100028886188884208D16889012805D1A069A3
:1008200018B1297B2046A269904770BD0146044853
:100830004056082801DB012070470020FCE700003B
:1008400094260020014606484056002805DB04484F
:100850004056082801DA012070470020FCE700001C
:100860009426002010B51748007818BB0120FFF728
:100870000BF915481549086047211448001D01600F
:100880000021001D0160001D01600F490F4820304C
:1008900001604721001D01600021001D0160001D55
:1008A0000160012009490C3908600949886005493F
:1008B000087005E0012006494860002001490870E1
:1008C00010BD00008F2000202C21002020C50140F9
:1008D00000C00140052806D006280FD0072811D0F7
:1008E00008281ED119E001210F4A516040F2A4618D
:1008F0000E4A118001210E4A916013E001210C4A39
:1009000051600FE00121084A516040F2E241074A7C
:1009100011800121064A916004E00121044A5160DE
:1009200000E000BF00BF704700C0014088200020E9
:100930000010024070B548DF044600BF254625B1CF
:1009400000BF2846FDF71AFE00BF00BF70BD10B5FE
:100950000C20FFF78EFD0120FFF796F810BD000078
:1009600001490860704700004015014001480068D7
:10097000704700000415014010B5044603480460A8
:1009800006211120FCF7CAF910BD0000081501402E
:1009900010B54FF480300A4908600A49C1F80403D1
:1009A0001120FCF797F91120FCF7A0F90120054967
:1009B00008602F20FBF72EFD01200349087010BDB1
:1009C0004413014000100140D020002010B5112038
:1009D000012181400E4A430942F8231000BF4FF421
:1009E00080300C4908600C49C1F8080301204860B8
:1009F0002F20FBF70FFD01200749886000200749E1
:100A000008602F20FBF706FD00200549087010BD87
:100A100080E100E04813014000100140BC200020AC
:100A2000D020002010B51048C07D40B94FF484712B
:100A30000E48FFF798FD00BF0D48006810BD4FF449
:100A400084710A48FFF78FFD00BF09480068C0B2F3
:100A50000549C968044A527E88540348407E401CB8
:100A60000149487600BFE9E7442600200020004005
:100A7000182500407FB504460D4601208DF8000082
:100A80008DF8084001950348016842686846904720
:100A90007FBD00004426002010B54FF49271064837
:100AA000FFF761FD4FF484710348FFF75CFD0021FF
:100AB0000148FFF76FFD10BD0020004008B501465A
:100AC000044800900098884201D0002008BD002012
:100AD000FCE700008020002010B5014608462028D1
:100AE00008DA012282402C4B1A400AB101220EE0A2
:100AF00000220CE0402809DAA0F12002012303FAC9
:100B000002F20AB1012202E0002200E0012212B941
:100B100042F2010010BD0A46002A06DA1F4B02F01D
:100B20000F04241F1B5D5B0902E01D4B9B5C5B09EE
:100B30001846082801D3002209E028B1012803D073
:100B4000042801D0052801D1002200E0012212B9B9
:100B500042F20200DEE71348806868B14809114A92
:100B600052F8200001F01F0301229A4010434A0965
:100B70000C4B43F822000CE000BF01F01F020120E3
:100B800090404A09920002F1E022C2F8000100BF41
:100B900000BF0020BEE70000FC06FFBC18ED00E02F
:100BA00000E400E0DC26002030B504461088C01CBC
:100BB000984201D90C2030BD022015884855108874
:100BC000401C10801120158848551088401C10804A
:100BD00010880C541088401C10800020EBE72DE991
:100BE000F04707460E4614469A46B86A10B90720E1
:100BF000BDE8F0874FF0000836E008EB4801B86A1E
:100C000000EB8105A88800F10209B9F1FE0F01D9B6
:100C10000C20EDE709F10100218870542088401C68
:100C200020801620218870542088401C2080228833
:100C30009119288800F030FC218808442080A88879
:100C400000280DDDA86808B90720D1E7AA88238805
:100C50009819A968FBF72CFC2088A98808442080F3
:100C600008F1010000F0FF0897F82C004045C4DCB3
:100C70000020BDE738B50848009069460748FDF7F1
:100C800073FF044600BF254625B100BF2846FDF787
:100C900075FC00BF00BF38BD25F801001021002001
:100CA000014600BF09B90E20704700BF014801602E
:100CB0000020F9E7002100207CB50446044800909C
:100CC0000098019001A9204660DF054628467CBDBA
:100CD0008020002070B505460E461446142120469B
:100CE000FBF7FFFB01202080002121610020207301
:100CF00026726572607A08B10121A172002070BD70
:100D000070B504460D461646324629462046FDF784
:100D100013FC70BD2DE9F04180460C4616461F4677
:100D200014B90720BDE8F081204600F0030109B99D
:100D3000012100E0002109B90720F3E70948046018
:100D400009480680094807600949404610DF054602
:100D50000DB12846E6E70120064908701620FFF786
:100D6000BBFEDFE7F8200020FC200020F020002060
:100D7000010D0200F42000200146C87808B10720C8
:100D800070470020FCE70246501A20F07F40704771
:100D900070B504460B48006878B10A4AD4E90501E9
:100DA00012689047054600BF2E4626B100BF304668
:100DB000FDF7E4FB00BF00BF02E0D4E9051088475F
:100DC00070BD0000CC2000202DE9FC4100200190E6
:100DD0000F4804680F4807686846FEF71FFA054683
:100DE000FEF762FD06462DB101AA21460098FEF7E6
:100DF00013FB01260198FEF7A3FD00B1012616B1F1
:100E00003846FEF7EBF8002003490870BDE8FC8186
:100E1000BC200020B8200020D120002010B51420D4
:100E2000FBF770FF10BD000010B51849096811B933
:100E30001649086028E0154A016812681268914254
:100E40000DD81249096809680268891A0F4A1268A0
:100E500011600E490968C1610C49086014E002681C
:100E60000A4C2368216803E00C68121B0B46C96911
:100E700011B10C689442F7D311B10C68A41A0C603C
:100E80000260C161D86100BF10BD0000B820002021
:100E900030B50246154C2168084604E0904200D166
:100EA00003E00146C0690028F8D100BF00B930BD99
:100EB000814210D10D4C2468E4690C4D2C602C4605
:100EC000246844B901240A4DAC600024094D2C600B
:100ED0000124094D2C700368C469CC61C86910B144
:100EE00004681C44046000BFE1E70000B820002053
:100EF00000100140BC200020D12000202DE9F84343
:100F000005460E4617469846DDF8209011490968B7
:100F100001EBC500694600F039FB044614B9042012
:100F2000BDE8F883012020706660FFF71FFDA06018
:100F3000E760C4F81080C4F814900649096801EB12
:100F4000C5009DF8001000F039FBFFF767FF002097
:100F5000E6E70000B4200020F8B504460E460D492F
:100F6000096801EBC400694600F010FB05460DB9A5
:100F70000420F8BD022028706E600649096801EB64
:100F8000C4009DF8001000F019FBFFF747FF002098
:100F9000EFE70000B42000202DE9F0411F48006871
:100FA000002838D00027FFF7E1FC80461C48016884
:100FB0004046FFF7E8FE06461848056810E0286836
:100FC000B04200D90EE02868361A286807442C463B
:100FD000ED69207C20B1002020742046FFF7D8FE68
:100FE000002DECD100BF0F4800780F4909788842E6
:100FF00009D10D480078401CC0B20B490870022886
:1010000001D10020087009480749097840F821708B
:10101000FFF704FF00BFBDE8F0810000B82000200A
:10102000BC200020C8200020C9200020C0200020B3
:1010300010B51120FBF766FE10BD000070B500BFB3
:101040000023084A05211846FDF7F6FA044600BFBA
:10105000254625B100BF2846FDF790FA00BF00BF26
:1010600000BF70BDD822002070B504461D46108810
:101070001230A84201D90C2070BD11201688885565
:101080001088401C10801020168888551088401C3D
:1010900010800F2307E0E05C16888855581E43B285
:1010A0001088401C1080002BF5DA0020E4E70000D7
:1010B00010B54FF48E710948FFF755FA084880685B
:1010C0000749898A445C0648808A401C0449888212
:1010D00020460449086000BF10BD00000020004009
:1010E000442600201C2500401FB5044600208DF832
:1010F00000008DF8084006488068019000200449EF
:101100008875084601684268684690471FBD000020
:101110004426002030B504461088C01C984201D9EE
:101120000C2030BD0220158848551088401C1080C6
:101130000A20158848551088401C108015884C5589
:101140001088401C10800020EBE770477CB50446F7
:101150000E462078012827D1606801782648FDF7DF
:101160003CFA054645B101208DF80000019568461E
:101170002249096888470BE01F48FEF791F90128CA
:1011800006D100208DF8000068461C490968884790
:101190001948FEF785F918498988884203D8012142
:1011A0001748FEF76DFF25E0207802280CD18DF856
:1011B0000000E068019001211148FEF761FF6846D8
:1011C0000E490968884715E0207898B90D490E48FE
:1011D000FDF7E2F918B901210A48FFF76DF80A484E
:1011E000FEF75EF930B903208DF800006846034928
:1011F000096888477CBD000024260020A820002024
:10120000AD200020AC200020342600207FB54FF414
:1012100000715448FFF7B5F968B34FF49271514823
:10122000FFF79AF938B34FF492714E48FFF79BF9E4
:101230004FF401714B48FFF79EF94B48807E18B977
:1012400004214848FFF7A6F902208DF80000454820
:10125000FFF77CF903904448C17D8DF80810C06801
:10126000019000204049C875087608460168426828
:10127000684690473CE004213A48FFF782F900288D
:1012800036D04FF484713748FFF766F900282FD025
:10129000FFF7C8FB3448C07D3349497E884227D1D7
:1012A0003148007E80B13048C468457E007E2E49BA
:1012B000C87508460069C86000200876487621464F
:1012C0002846FFF7D7FB13E02748807E18B9042192
:1012D0002448FFF75FF94FF401712248FFF74BF9FB
:1012E00000202149C8750A46D168507EFFF7C2FB2D
:1012F0004FF48E711B48FFF72FF9A0B11A48808A6E
:101300001949897D884202DAFFF7D2FE0BE04FF4DB
:101310008E711448FFF727F91348807D18B11249E0
:10132000887DFFF7E1FE4FF4A2710E48FFF714F934
:10133000B0B14FF4A2710B48FFF715F90A48807E4F
:1013400018B100210748FFF725F90748C07D38B1DB
:1013500000200549C8750A46D168507EFFF78AFB10
:101360007FBD000000200040442600207FB54FF4E0
:1013700092714648FFF71CF9F0B14FF4927143485F
:10138000FFF71DF902208DF800004048FFF70AF929
:1013900003903E48FFF722F9C1B28DF808103C488F
:1013A000C068019000203A49C8750876084601686F
:1013B00042686846904737E04FF488713348FFF73A
:1013C000F7F8002830D04FF488713048FFF7F7F86D
:1013D0002E48FFF703F9C4B22D48C07DA04222D1A8
:1013E0002B48007EB8B12A48C568202029490968E1
:1013F0008143264AC2F8001200BF2548007E2449D6
:10140000C87508460069C86000200876294620464D
:10141000FFF730FB07E000201D49C8750846C1688A
:101420002046FFF727FB00BF4FF4A2711748FFF7D4
:10143000BFF898B14FF4A2711448FFF7C0F81448F0
:10144000C07D58B100201249C8751048FFF7C6F892
:10145000C4B20F48C1682046FFF70CFB4FF49071EF
:101460000A48FFF7A5F878B14FF490710748FFF7E5
:10147000A6F80748807D38B1044840F24C5109581D
:10148000CCB22046FFF730FE7FBD000000200040B8
:10149000442600200022004002460A70100A4870CC
:1014A0000220704738B505461E4800884FF6FF7188
:1014B000884235D01C480078401C1B4908701B48E6
:1014C000007B097888420DDB19491648008875DFD2
:1014D000044634B11548806918B114488169204622
:1014E00088471DE00020104908701048007C68B152
:1014F0003B210C48008876DF044634B10B488069F4
:1015000018B10A4881692046884700BF07484069EA
:1015100030B100200090054841696846884700BF07
:1015200038BD00009C2000209A200020E8250020E3
:101530009220002030B500BF00BFEFF30581C1F35A
:10154000080282B1A2F1100359B2002906DA0D4C4B
:1015500001F00F052D1F645D640902E00A4C645C14
:101560006409E1B200E00F21022902D0062904D16A
:1015700001E0002003E0012001E0022000BF00BFE5
:1015800030BD000018ED00E000E400E030B5024698
:101590000B465078401CC1B29078884200D100219F
:1015A0001078884201D1002030BD1970557805EBC4
:1015B0004505506800EBC5042046F5E741707047CB
:1015C0002DE9FC478046894615469A46DDE90A67BB
:1015D0005346022249464046CDE9006700F017F81D
:1015E000044600BF14B12046BDE8FC8700BF534647
:1015F000102229464046CDE9006700F008F804466D
:1016000000BF0CB12046EFE700BF0020ECE72DE95A
:10161000FF5F06468B4696461D460E9C4FF000081F
:101620002088039000274AE0706800EB870000687C
:101630000190002202A901A865DF824600BFBAF12D
:10164000000F03D0504604B0BDE8F09F00BF9DF8E6
:101650000800704532D1B8F1000F01D0002000E041
:101660000220009020889DF8081001440098014451
:101670000F98814201DD0C20E5E7B8F1000F0AD197
:101680002088401C2080208805F800B02088401C5D
:1016900020804FF001082088421902A901A865DFC7
:1016A000824600BFBAF1000F01D05046CBE700BF21
:1016B00020889DF808100844208000BF7F1C3088D7
:1016C000B842B1DCB8F1000F0DD021880398401C5E
:1016D000081A1FFA80F9B9F1FF0F01DD0C20B2E7FB
:1016E000039805F800900020ADE7000023150000E6
:1016F00001000007080605070100000000E0D7010F
:101700000426002023D1BCEA5F782315DEEF1212F5
:1017100000000000060000000800000007000000B4
:101720000500000000000000000000000000D601DD
:10173000060000000600000008000000070000008E
:101740000500000000000000000000000000D601BD
:1017500006000000BC26002003000000000000007E
:101760004C5555555555A53F7751C1166CC156BFBF
:101770009015CB19A001FA3EAD529C804F7E92BECF
:10178000C4B1B4BD9EEE213ED43888BEE9FAA8BDEE
:1017900000004054FB21F93F3163621A61B4D03D2F
:1017A0000000601A61B4D03D7370032E8A19A33B08
:1017B0000000002E8A19A33BC14920259A837B395A
:1017C00000000000000000006E83F9A22915444EBD
:1017D000D15727FCC0DD34F5999562DB4190433C3D
:1017E000AB6351FE61C5BBDE3A6E24B7E0D24D4219
:1017F000EA2E49061C92D1091CEB1DFE3EA729B119
:10180000F53582E88444BB2E26709CE9417E5FB4A6
:1018100039D69139F43953838B5F849C3B28F9BDC9
:10182000FF97F81F0F9805DE8B112FEF1F6D0A5AD7
:10183000CF7E366DB709CB27663F464F2DEA5F9EB8
:10184000C7BA27757BF1E5EBF739073DEA92528A73
:10185000B15FFB6B085D8D1FA6F810111111813F60
:10186000D561C119A0012ABF7DFEB157E31DC73E56
:10187000EB9C2B8AE6E55ABE7CD5CF5A3AD9E53D9A
:10188000A0180200802000209000000080D90100F4
:101890003019020010210020D825000090D9010045
:1018A000FFFFDC8598BA98BAE204E20470030000F6
:1018B0000000000000000000000000000000000028
:1018C0000000000000000000000000000000000018
:1018D0000000000000000000000000000000000008
:1018E00000000000000000000000000000000000F8
:1018F00000000000000000000000000000000000E8
:1019000000000000000000000000000000000000D7
:1019100000000000000000000000000000000000C7
:1019200000000000000000000090D0030000000054
:040000050001C40131
:00000001FF
